:020000040000FA
:1000000000E70020B15900008F77010085590000FA
:100010008559000085590000855900008559000068
:10002000000000000000000000000000DD520000A1
:100030008559000000000000495200008559000069
:100040008153000081530000815300008153000060
:100050008153000081530000815300008153000050
:100060008153000081530000815300008153000040
:100070008153000081530000815300008153000030
:100080008153000081530000815300008153000020
:100090008153000081530000815300008153000010
:1000A0008153000081530000815300008153000000
:1000B00081530000815300008153000081530000F0
:1000C00081530000815300008153000081530000E0
:1000D00081530000815300008153000081530000D0
:1000E00081530000815300008153000081530000C0
:1000F00081530000815300008153000081530000B0
:10010000815300008153000081530000815300009F
:10011000815300008153000081530000815300008F
:10012000815300008153000081530000815300007F
:10013000815300008153000081530000815300006F
:10014000815300008153000081530000815300005F
:1001500081530000FFFFFFFF53B94AB9002908BFD0
:1001600000281CBF4FF0FF314FF0FF3000F00CB8FB
:10017000ADF1080C6DE904CE00F09EFBDDF804E063
:10018000DDE9022304B07047704700BF2DE9F14F4D
:1001900003F11C0402EB840C4FEA930B8A68CB68D2
:1001A0000868496800F046F93CE9F00060406940A1
:1001B00072407B400BF1060E4EE083EA134480EA66
:1001C000134582EA134746BA96EA3444604000F089
:1001D0000F1684EA063420F00F1684EA161054BA7B
:1001E00094EA0106724002F00F1486EA043622F007
:1001F0000F1486EA14124CBA6540694001F00F14DE
:1002000085EA043521F00F1485EA14115CBA6740C1
:100210007B4003F00F1487EA043723F00F1487EABA
:10022000141344BA44404DBA4D4056BA56405FBAD2
:100230005F4087EA174886EA174B84EA17464FEA79
:1002400038488BEA1B4485EA1B4788EA1B4580EA4D
:100250003440694072407B4000F0703400F08035DB
:1002600000F00F3040EA440040EAD50080EA9004F4
:1002700004F0332480EA8400604001F0703401F01F
:10028000803501F00F3141EA440141EAD50181EAAC
:10029000910404F0332481EA8401614002F0703457
:1002A00002F0803502F00F3242EA440242EAD502FF
:1002B00082EA920404F0332482EA8402624003F06A
:1002C000703403F0803503F00F3343EA440343EA0C
:1002D000D50383EA930404F0332483EA8403634060
:1002E000C943DB4381EA000483EA044686EA02014B
:1002F00083EA014382EA334583EA14435C4084EA9B
:1003000000077FEA040A8AEA024A8AEA010B87EABE
:1003100011488AEA374A80EA060181EA1A418AEAE4
:10032000030A04EA0A00454088EA040707EA0B00CA
:1003300041408AEA0B0608EA060084EA34428AEA67
:100340003A4602EA060358404540414087EA3743AF
:100350008BEA3B4003EA000985EA090582EA0309C2
:10036000464006EA0906714085EA010005EA35467D
:10037000464006EA314181EA304181EA364606EAE2
:10038000304686EA354634400F4086EA010508EAE1
:10039000050886EA3640024088EA020881EA3142CE
:1003A00013405C4080EA020309EA030987EA09076F
:1003B000674088EA040806EA0A0601EA0B018AEAAD
:1003C0000B0425408AEA3A44204045408BEA3B4BE7
:1003D00002EA0B02564084EA0B04234059406E4067
:1003E000694087EA364080EA384080EA060380EABE
:1003F000104481EA134585EA344585EA17427D4079
:1004000082EA354180EA05403CE9F00060406940FD
:1004100072407B40BEF1010E3FF6CFAE20BC00F033
:100420005FF828606960AA60EB60BDE8F08F00BFEC
:1004300000F000BA80EA101404F0F01480EA04100E
:10044000604081EA111404F0F01481EA0411614063
:1004500082EA121404F0F01482EA0412624083EA81
:10046000131404F0F01483EA0413634080EA1024A8
:1004700004F47F4480EA0420604081EA112404F4FB
:100480007F4481EA0421614082EA122404F47F441B
:1004900082EA0422624083EA132404F47F4483EA5C
:1004A0000423634081EA500404F0553480EA440098
:1004B000614083EA520404F0553482EA4402634006
:1004C00082EA900404F0333480EA8400624083EAD4
:1004D000910404F0333481EA84016340704700BF23
:1004E00082EA900404F0333480EA8400624083EAB4
:1004F000910404F0333481EA8401634081EA5004BA
:1005000004F0553480EA4400614083EA520404F068
:10051000553482EA4402634080EA102404F47F44A4
:1005200080EA0420604081EA112404F47F4481EAD7
:100530000421614082EA122404F47F4482EA042206
:10054000624083EA132404F47F4483EA0423634073
:1005500080EA101404F0F01480EA0410604081EA8C
:10056000111404F0F01481EA0411614082EA1214BB
:1005700004F0F01482EA0412624083EA131404F0D7
:10058000F01483EA04136340704700BF2DE9F14F74
:1005900094464FEA930B8A68CB6808684968FFF76E
:1005A00049FF0BF1060E33E083EA134480EA13455A
:1005B00082EA134746BA96EA3444604000F00F16C8
:1005C00084EA063420F00F1684EA161054BA94EA2E
:1005D0000106724002F00F1486EA043622F00F146E
:1005E00086EA14124CBA6540694001F00F1485EA9E
:1005F000043521F00F1485EA14115CBA67407B4082
:1006000003F00F1487EA043723F00F1487EA14135A
:10061000BCE8F0006040694072407B4000F0E0348C
:1006200000F0103500F00F3040EA540040EAC500F9
:1006300080EA900404F0332480EA8400604001F0F2
:10064000E03401F0103501F00F3141EA540141EA84
:10065000C50181EA910404F0332481EA84016140F8
:1006600002F0E03402F0103502F00F3242EA540298
:1006700042EAC50282EA920404F0332482EA840248
:10068000624003F0E03403F0103503F00F3343EA27
:10069000540343EAC50383EA930404F0332483EA52
:1006A0008403634081EA324787EA134581EA35468D
:1006B00090EA060484EA034B82EA1B4280EA04447F
:1006C00084EA054483EA144A85EA14448BEA044B1D
:1006D00084EA374481EA0B4181EA164104EA0A00C0
:1006E000454082EA04082BEA080041408AEA0B06EA
:1006F00002EA060084EA34438AEA3A4603EA060735
:1007000078404540414088EA38478BEA3B4007EA59
:10071000000985EA090583EA0709464006EA090651
:10072000714085EA010005EA3546464006EA314156
:1007300081EA304181EA364606EA304686EA3546A5
:10074000344008EA010886EA01052A4086EA364074
:1007500003405A4081EA31431F407C4080EA03074E
:1007600009EA070988EA0908544088EA020806EA03
:100770000A0601EA0B018AEA0B0215408AEA3A42AC
:10078000104045408BEA3B4003405E4042401740EA
:1007900079404D404E40E443F64386EA18435D40BD
:1007A00085EA054083EA134386EA034183EA384237
:1007B00084EA114383EA04435FEA3343BEF1010E46
:1007C0003FF6F2AE1ED4BCE8F000604069407240D3
:1007D0007B4020BCFFF784FE28606960AA60EB6064
:1007E000BDE8F08F2DE9E0414FF2F00280EA1031D0
:1007F000114080EA0130484041088208C3084FF0A8
:10080000000E4FE700F0113001F0113102F011320B
:1008100003F0113340EA410040EA820040EAC3009D
:100820004FF2F00280EA1031114080EA0130484076
:10083000BDE8E0812DE9F04F02F11C0506460746B0
:1008400000EB850851F8040B043A46F8040BF9D183
:100850004FF0010CFFF7C6FF5FEA302080EA0C0082
:100860001ECF41404A4053405C401EC620004645D2
:1008700017D04FEA4C0C1CF4807F18BFACF1E50C8C
:100880002C2DE7D03C2D06D1FFF7ACFF06CF414021
:100890004A4006C6100006CF41404A4006C6100036
:1008A000D8E736E90F00FFF7C5FD043D86E80F00E5
:1008B000F7D1BDE8F08F00BF2DE9F04786468C46A2
:1008C0000846089E154674461946002B40F0C18024
:1008D0008542B2FA82F245D94AB1C2F1200300FA48
:1008E00002FC954094402EFA03F343EA0C0C4FEAC5
:1008F000154EA8B2230CBCFBFEF80EFB18CC08FB6F
:1009000000F943EA0C43994528D9EB1808F1FF3761
:1009100004D2994502D9A8F102072B44A3EB09039D
:10092000A4B2B3FBFEFC0EFB1C330CFB00F044EA4C
:100930000344A04214D92C190CF1FF3304D2A04275
:1009400002D9ACF102032C44241A43EA07401EB139
:10095000D440002334607360BDE8F0874746DDE78C
:100960006346F1E792BB431B01214FEA154EAFB23C
:10097000200CB3FBFEFC0EFB1C330CFB07F840EA1B
:100980000343984561D9EB180CF1FF3004D2984528
:1009900002D9ACF102002B44A3EB0803A4B2B3FBD1
:1009A000FEFC0EFB1C330CFB07F744EA0344A74292
:1009B0004DD92C190CF1FF3304D2A74202D9ACF166
:1009C00002032C44E41B43EA0040C0E7C2F12003C9
:1009D0009540944020FA03F12EFA03F34FEA154EA6
:1009E0009040AFB20343B1FBFEFC0EFB1C10190C90
:1009F0000CFB07F841EA0041884522D969180CF13F
:100A0000FF3004D2884502D9ACF102002944A1EBA1
:100A100008019BB2B1FBFEFC0EFB1C110CFB07F79F
:100A200043EA01439F420ED9EB180CF1FF3104D287
:100A30009F4202D9ACF102012B44DB1B41EA004189
:100A400093E76046E3E76146F7E76046A4E763465D
:100A5000B8E7834206D916B9002108467CE7C6E903
:100A600000E0F9E7B3FA83F78FB9834201D3724507
:100A700008D8BEEB020460EB030301209C461EB9BC
:100A8000002169E73846FAE7C6E9004CF8E7C7F104
:100A9000200CBB400EFA07F522FA0CF42EFA0CF1EA
:100AA000BA401C4320FA0CF3B8404FEA1449014302
:100AB0001FFA84FEB3FBF9F809FB18300B0C08FB96
:100AC0000EFA43EA00439A4540D9E31808F1FF3093
:100AD00004D29A4502D9A8F102002344A3EB0A03E9
:100AE00089B2B3FBF9F809FB183308FB0EFE41EAA3
:100AF00003418E452CD9611808F1FF3304D28E458D
:100B000002D9A8F10203214443EA0040A1EB0E01FF
:100B1000A0FB02984145CE46434602D306D14D453F
:100B200004D20138B9EB020E68EB0403002EA7D003
:100B3000B5EB0E0261EB030101FA0CFC22FA07F39C
:100B4000F9404CEA0303C6E9003199E74046C5E79E
:100B50004346D9E710F8012B11F8013B012A28BFC1
:100B60009A42F7D0D01A7047034613F8012B002A97
:100B7000FBD1181A013870472DE9F04F824616460E
:100B80001C4600259FB00391307810B9284600F02C
:100B900085BD731C2528069306D00399D0470028ED
:100BA000C0F27C8501351BE21822002110A81AF042
:100BB000ACFC7378252B00F0BA80002398469E4643
:100BC0009C461846711C0F4611F8012B2B2A00F089
:100BD000DD8000F2D480202A00F0DB80232A00F0A0
:100BE000DB802BB19DF8483043F040038DF848304E
:100BF000B8F1000F05D09DF8483043F020038DF880
:100C00004830BEF1000F05D09DF8483043F0100386
:100C10008DF84830BCF1000F05D09DF8483043F006
:100C200008038DF8483028B19DF8483043F004039C
:100C30008DF848309DF8483003F04401442903D131
:100C40006FF386138DF848309DF848302A2A43F018
:100C500080030E978DF8483040F0A3809DF849300E
:100C600043F001038DF849307B1C1A782E2A0CBF03
:100C7000012100219DF8492061F341028DF84920AE
:100C80000CD15A1C0E925A782A2A40F09A809DF86C
:100C90004920023342F004028DF849201A786C2A68
:100CA00000F0BB8000F29D80682A00F0A3806A2AD1
:100CB00000F0BC804C2A00F0C18013F8012B782A88
:100CC00006938DF84B2000F201816D2A00F2C3805B
:100CD000692A00F2FB80572A00F2DA80412A04D008
:100CE000A2F14503022B00F2F18004219DF84A3065
:100CF00002F0DF02A2F1410761F302037A429DF89C
:100D000049107A4162F3C7110A068DF84A308DF80E
:100D10004910CBB200F1198103F07802182A40F093
:100D200003816FF3C6038DF849300023F2E0B21C53
:100D300006928DF84B309DF84930D90740F1078174
:100D400054F8042B002A049208DA9DF8482042F057
:100D500004028DF84820049A524204925A0740F146
:100D6000FE8054F8047B002F80F2FD809DF849300E
:100D70006FF341038DF849304FF0FF37F3E02D2A30
:100D80000DD0302A7FF42DAF01231CE74FF0010C6A
:100D900019E74FF0010E16E74FF0010813E70120A5
:100DA00011E70EA801F0F4FA0E9BBB423FF45DAFD1
:100DB0009DF848201390C00F60F341028DF8482041
:100DC00053E70EA801F0E4FA9DF848301490C3F3FD
:100DD000400242EAD07262F341038DF848300E9B24
:100DE0005CE7742A26D07A2A7FF467AF06219DF843
:100DF00049200CE05A78682A9DF8492006D1012143
:100E000061F3C6028DF84920023356E7022161F3EF
:100E1000C6028DF8492001334FE75A786C2A9DF8B5
:100E2000492001D10421EBE70321F0E705219DF8DA
:100E30004920ECE707219DF84920E8E7BDF8482064
:100E400022F4F04222F0020242F4804242F0020216
:100E5000ADF84820DFE76E3AD3B201229A4040F263
:100E600082431A429DF8493037D112F0240F5FD1E6
:100E7000D1072BD503219DF84A2003F07803A3F175
:100E8000400061F3020243428DF84A20434141E0B1
:100E90000120A2F15801C9B200FA01F111F4624F28
:100EA0007FF423AF40F6010319429DF849301AD16F
:100EB00011F4043F0AD09DF84A2060F3020203F0C7
:100EC0007803402B8DF84A207FF42FAF9DF84830EF
:100ED00043F001038DF8483027E702219DF84A20AE
:100EE00061F30202EBE702209DF84A1003F0780359
:100EF00060F30201402B8DF84A1002BF9DF84810A4
:100F000041F001018DF84810632A7FF40EAF003BD9
:100F100018BF01239DF84820C2F340010B4363F33F
:100F200041028DF8482006E713F0380FCED1FCE6D9
:100F300003219DF84A2013F0780F61F3020214BFD9
:100F4000012300238DF84A20E4E70123E2E79DF91D
:100F50004820002AACBF4FF0FF32139AFDE69F07EE
:100F60007FF50AAF149F00239DF84A20CDE9133383
:100F700002F00703042B9DF8493007D1980705D4E8
:100F80009DF949100029ACBF06270D2702F0070282
:100F9000012AC3F3C30333D1DA1E042A04D8DFE8DD
:100FA00002F02146462121002268012B4FEAE2711E
:100FB000CDE910211CD19DF94020D117CDE9102198
:100FC00004349DF848209107079250D0324650468D
:100FD000069B039915F0F1FE0028C0F25F830544DB
:100FE000069ED1E554F8042BD117CDE91021E8E78E
:100FF000022BE5D111B242F3C032CDE91012DFE786
:10100000022A24D1DA1E042A04D8DFE802F01810DC
:1010100010181800012B4FF0000154F8042B14D0C5
:10102000022BCDE91021CCD192B21092C9E707343E
:1010300024F00704F4E80201CDE91001C1E754F8F7
:10104000042B109200221192BBE7D2B2CDE7042A02
:1010500008D1073424F00704D4E900010834CDE9AD
:101060001001AEE7032AACD154F8042BDDE79DF85C
:101070004BB0BBF1780FB3D8BBF1570F49D8BBF1D8
:10108000250F00F09180BBF1240FA9D9BBF1410FCE
:1010900003D0ABF14503022BA2D8DDE91013002BDE
:1010A000C0F23781079A160700F13681C2F30019A2
:1010B0004FEA4919C3F30A50C3F31303002840F061
:1010C0002E8151EA030614BF01260026DB0243EA03
:1010D0005153C902BBF1460F40EA010E43EAE07CDE
:1010E00008BF4FF0660B5EEA0C0CCDE90C1300F064
:1010F0009C81002E40F04A810D9BA0F2FE3843F007
:1011000000430D930020DDE90C1306464FF0050C5B
:1011100056E1ABF1580120293FF662AF01A050F82B
:1011200021F000BFB1120000E10F0000E10F00004C
:10113000E10F0000E10F0000E10F0000E10F0000EF
:10114000E10F0000E10F00009B100000E10F000024
:1011500035120000491200009B1000009B10000097
:101160009B100000E10F000049120000E10F000099
:10117000E10F0000E10F0000E10F0000EB120000A2
:10118000B1120000B7120000E10F0000E10F0000F3
:10119000AF110000E10F0000B1120000E10F0000EC
:1011A000E10F0000B112000058460399F6E4002F49
:1011B000109E3BDB394630461AF06FFA002E3FF4A2
:1011C0000FAF4FF000093718BB1B9DF84A2012F0F3
:1011D0001001059100F05782023312F04002DDF851
:1011E0004C80089218BF149A434418BF9B18049A65
:1011F000CDF81C80002A40F36182D31A04939DF835
:1012000048305807C3F3800B00F15882590640F16B
:101210004882B9F1000F07D048460399D04700280B
:10122000C0F23C82D946013530233BE23046FFF71D
:101230009BFCC6E7109B4FF000098DF85C300DF168
:101240005D07012317AEC0E7079B1A0754BFC3F31E
:1012500000194FF02B09DDE9102358BF4FEA491957
:10126000002B06DA4FF02D09524263EB4303CDE920
:101270001023DDE910010DF17503009312AA17ABDD
:1012800001F09CF80646002F0CDB9DF848200DF17C
:1012900075039B1B6FF386129F428DF8482001D97E
:1012A000FB1A1393002E3FF49BAE0DF175075BE024
:1012B0004FF00009DDE71098002800F0DF810DF104
:1012C00075030093002117AB12AA01F077F8BDF85F
:1012D0004A30064603F0EF0343F4F04343F01003B3
:1012E0004FF00009ADF84A30CDE7109A072B3FF6D2
:1012F00077AEDFE803F00C04060C08080C0C157040
:101300006EE615806CE6EB17C2E9005368E61560DF
:1013100066E64FF02D09CDE64FF02B09CAE640F204
:10132000FF76B0422FD1A0480BF10102D2B2825C0D
:101330000B4302F003021ED1012A0BBF492369238C
:101340004E216E210CBF462266228DF85C309DF83E
:1013500048308DF85D106FF386138DF85E208DF8A0
:1013600048300DF15F0717AEBB1BB9F1000F3FF41A
:101370002CAF013329E7012A15BF6E234E236121CB
:1013800041211A46E1E70026A0E6013849185B41F1
:10139000002BFADACDE90C13AEE6490841EAC37135
:1013A0005B08B3F1333F404608F10108F5D200F184
:1013B000020801200CFB03FEA1FB0C13013E734449
:1013C00018F1020FE9DB08B1CDE90C13DDE90C31AE
:1013D000B8F1000F2CDCC8F10400A0F1200C08F1DA
:1013E0001C08C34001FA08F821FA0CFCC1400BF0BC
:1013F000DF0043EA0803472843EA0C0338D1F01C16
:1014000001DBB7422ADAABF10202002F5FFA82FB5E
:101410007BDD9DF84800013F820676D43A1E18BF56
:101420000122059207F101082CE04FF0000869E65F
:10143000023341F100010CA808F1FF380136CDE973
:101440000C3115F08BFCDDE90C31DB18494100292A
:1014500008F1FF38F9DACDE90C31B7E79DF84820FB
:10146000BF1B90064FD43A1E18BF0122059204E01C
:101470000022BBF1660F0592D4D117EB06084FF09E
:10148000660B44D4B8F1100FA8BF4FF010089FEDC1
:10149000447B10208DED0E7B0B90DDE90E02B8F140
:1014A000000F37D1C01842EB0103B3F1805F41D286
:1014B000CDE90C03079BBBF1660F03F0200340F05E
:1014C000BC80002E41DC30218DF85C10002B6DD1EA
:1014D000002F40F3B4812E238DF85D3086B1734226
:1014E000BB42A8BF3B46002B1393A7EB0307D4BF17
:1014F000002301239DF84A1063F345118DF84A102B
:101500000DF15E0839E00022B0E7002289E74FF0D4
:101510000008BCE7400840EAC2705208CDE90E025C
:101520000EA8CDE9083108F1FF3815F017FCDDE908
:101530000831B2E7400840EAC3705B08CDE90C030C
:101540000CA815F00BFC0136B4E70DF15C080B9903
:10155000002909DD0BA90CA8079315F017FC013E23
:10156000079B08F8010BF2D113969BB9002F40F3AB
:1015700064812E2108F8011B0026002F1FDD0B9B24
:10158000002B1CDD0BA90CA815F000FC013F08F88E
:10159000010BF2E72E2308F8013BEDE7AFF30080E3
:1015A0000000000000000008321F02002E238DF80A
:1015B0005D30002EA4D0002F91DC0DF15E08059B5C
:1015C000002B4ED1149747460BF0DF03452B23D158
:1015D000002EBABF76422D232B23632EC8BF642171
:1015E0007B70C4BFB6FBF1F301FB13664FF00A0139
:1015F000C8BF03F13000B6FBF1F3D2BFBA1CFA1C2E
:10160000B87087F800B0174603F1300001FB136390
:10161000303307F8020B5370139B002B2CDC149B08
:10162000002BD4BF002301239DF84A2063F38612C8
:1016300000238DF84A203B7095E60BA90CA8079370
:1016400015F0A4FB079B30288DF85C0018BF06F14D
:10165000FF3613B9002F40F3F2802E238DF85D3052
:101660004EE7474617F8013C08F1FF38302BF8D019
:101670002E2B08BF4746A7E70123D5E7714F8146C8
:1016800005237E1FA1E5110748BF0133A5E51846D4
:1016900009930399D0470028099B05DA1FB0BDE8DC
:1016A000F08F2023DDF810B05A46002A0BF1FF3BE3
:1016B000EDDC049BCDF810B02B449D1AB9F1000F5E
:1016C00005D048460399D0470028E7DB0135089B41
:1016D000002B77D09DF94930002B28DB3346DFF80B
:1016E000689118789B4619F80020013352073FD4BF
:1016F0009DF84A30AE1B98065E4407D44246002A45
:1017000008F1FF383BDC079B33449E1A9BF800002E
:101710002E280AD10399D0470028BFDBB8F1000F6B
:1017200006F1010631DC0BF1010B5D4638E0B146F4
:1017300099F80000C846702809F1010913D1AE1BC1
:10174000149D46443544AB1B002B33DC3B464246DC
:101750005046039915F031FB00289FDB3044049E6E
:101760000546064464E00399D0470028E0DA95E78F
:1017700005930399D0470028059BB2DA8EE7302005
:101780000399D0470028B9DA88E730200399D04779
:1017900008F1FF38C0E70399D0470028FFF67EAF75
:1017A0002878A84619F8003001355907F3D4A6EB7C
:1017B0000B06C5E730200399D0470028FFF66EAF2F
:1017C0000136C0E79DF84A30DA0601D41B0706D57A
:1017D00030200399D0470028FFF660AF0135059B04
:1017E0003BB103999DF84B00D0470028FFF656AF58
:1017F0000135A84406E030200399D0470028FFF6C1
:101800004DAF0135A8EB0503002BF4DC3B46324617
:101810005046039915F0D1FA0028FFF63FAF28444F
:101820009DE720200399D0470028FFF637AF013508
:10183000731B002BF5DCFFF7D3BB1E46BFE60DF193
:101840005D08BCE62D030200331F0200000000000B
:101850002DE9F047054699460024282386B088469E
:101860009246CDE9024316F0A2FE284602A917F0DF
:10187000CDF80746002800F0AF8083793A2B18D1C5
:101880000423039928460494059316F0F6FE28468F
:1018900004A917F0BBF818B190F90130A34205DB99
:1018A0006FF01505284606B0BDE8F087284616F00B
:1018B0007EFEBB79112B58D0062B58D00020AB6888
:1018C000002B4ED19FED487B022295F840308DEDE4
:1018D000007B02FB03013A23A869043105F082F979
:1018E000044600287BD095F84020E96B17F073F888
:1018F000061E31DBA3682046DB68636495F8482048
:10190000696C17F068F8061E26DBA06895F8481089
:101910000C3015F0DCFFA06850F80C3FE36395F83D
:10192000401015F0D4FF95F8483007F1180184F8FD
:10193000403095F8403084F848303B7EFF2B03D18F
:10194000A06904F027FF0146204607F1080217F0BE
:1019500092F970B16FF00406204616F0D8FD3546B6
:10196000A0E71A8A5B681044AAE73020AAE73C2067
:10197000A8E741465246204617F0CAF8014600281B
:10198000E8D1B8F1040F22D199FA89F342462046F2
:1019900004A9049317F01FF80646204616F0DBFD55
:1019A0000246002ED8D12946204616F021FF0546D2
:1019B0000028D1D1204616F0FAFD3A21204617F032
:1019C000A2F9204616F084F80028C5DB6AE7042255
:1019D000204616F0F9FEDFE76FF0040562E76FF0CE
:1019E0000B055FE7AFF300800080000000000000FF
:1019F0002DE9F0472DED028B07469FED2D8B4FF023
:101A00000009DFF8B880DFF8B8A084B04FF0FF32EB
:101A10004FF0FF3307F57E700DF09CFF43680446DE
:101A20001E78002331461A468DED008B386805F08C
:101A3000EBF8616832460131054616F0CCFF0646E8
:101A400038BB237C85F86130637C85F86230A27CEA
:101A500095F8633062F3410385F86330D4E90201FD
:101A600042464B46FEF778FB4FF47A735A43C5E97A
:101A70000801AA622946386816F095F8002811DA9C
:101A8000334601223046CDE9016A0B49009617F032
:101A9000C6FB0023606863600AF09EFD284616F0CE
:101AA00036FDB3E7606866600AF096FDAEE700BFFA
:101AB000FFFFFFFFFFFFFFFF64F2010040420F0046
:101AC00068140200000000002DE9F04F3A4B85B089
:101AD000D3F8042392070BD5D3F8042142B1002296
:101AE000C3F80421354AD3F8043113680133136075
:101AF000334D0024A8464FF480362F4FD7F80433D7
:101B000006FA04F919EA030F2DD00123A340DB43A1
:101B10002C49D1E8EF2F02EA0300C1E8EC0FBCF139
:101B2000000FF6D122FA04F3DB0703D4264B53F857
:101B30002430C3B1204617F089FD08F063F84FF058
:101B40002002EFF3118382F31288BFF36F8F08EB4B
:101B5000041CDCE902AB504571EB0B010AD283F3A4
:101B60001188BFF36F8F103514B105B0BDE8F08F49
:101B70000124C3E70020D5E900129FED0D7B28600A
:101B80000D4803938CED027B0292C0F848932046E7
:101B900017F05CFD039B83F31188BFF36F8F00295F
:101BA000E1D0029A5B46009252468847DBE700BFCD
:101BB000FFFFFFFFFFFFFFFF00500150C044002068
:101BC000B8160020B444002040510150000000002D
:101BD0002DE9F0472DED028B04469FED498B4A4ECF
:101BE00084B04FF02003EFF3118783F31288BFF323
:101BF0006F8FD4F8C8508DB9022104F1E00019F0BC
:101C000048F9002843D100238DED008B394602931B
:101C100004F1D0023D480EF0F7FBE2E7D4F8CC2007
:101C20002B689542C4F8C83008BFC4F8CC30D4F84B
:101C3000E03043F00203C4F8E030EB6823F0040323
:101C400043F00103EB606B6887F31188BFF36F8F7C
:101C5000284698474FF02003EFF3118983F3128849
:101C6000BFF36F8FEB68990723F0010219D4EA6084
:101C7000D4F8E03023F00203C4F8E03089F311888F
:101C8000BFF36F8FDB05ACD40EF0A2FAA9E704F125
:101C9000D80500220121284619F0C5FA0028F8D1FC
:101CA000B1E7306823F00303EB600028E0D00027A1
:101CB000BA46D0F800800028DAD042680146954242
:101CC0000BD1016897B972683160824200D17160AE
:101CD00040F808AB0DF070FE3946B8F1000F0BD09C
:101CE000D8F8002040460F469046E4E73960726815
:101CF000824208BF7760EBE74246F3E7AFF300802C
:101D0000FFFFFFFFFFFFFFFF486900203AA100200F
:101D10007FB50BAB05930393054B0322029300237E
:101D20001846CDE9003301F093F907B05DF804FBE4
:101D30004E0202001FB50024064B204602930322E8
:101D40002346CDE900440449FFF7E2FF204604B0F2
:101D500010BD00BF4E02020044F2010038B5044C31
:101D6000044DAC4200D338BD54F8043B9847F8E723
:101D70001CF201001CF2010038B5054C256804EB8B
:101D8000850405B938BD54F80439013D9847F8E792
:101D900010F201002DE9F04F91B0009302F004031E
:101DA0000293C2F3C2030133840705460E46DDF8F1
:101DB00068800392059340F0BD81041D30B107296E
:101DC00009D86FF01B0011B0BDE8F08F01F00706D5
:101DD000341DC6F10806009B4FF000094FF0040ABD
:101DE000591E4FF0FF334F460193CB465346CDF873
:101DF00010900DB1009820600598002800F3EB804A
:101E00009948009A824203D398488242C0F0E38006
:101E1000039AA4EB050E92074FEA9E0000F106819B
:101E20000F2F00F2B480002D00F0088107F140026E
:101E30000DEB020C019A0CF8200C0CF8102C0498F5
:101E400001300490EAE07A2860D84B280ED8472861
:101E50005CD829282FD8252855D057D820287DD0C0
:101E60002338D0F1000B4BEB000B77E0A0F14C0CCA
:101E7000BCF12E0F4AD8DFE80CF0714949494949B5
:101E80004949494949494C49494949494949495AAE
:101E9000494C4C5A5A5A714C6E497149184C184960
:101EA0004983804C49494C49800000204FF0000B89
:101EB0004FF0040A39E00122A0F12A0C5FFA8CFCF1
:101EC00002FA0CFC1CEA0E0F48D11CF062502ED115
:101ED0001CEA020B42D0013C5444CAF1000C04EA53
:101EE0000C04002D61D0A3EB050CA4446645FFF45F
:101EF00068AF002868D1042B47D158F8043B236011
:101F0000042304342AE0019A013A01924FF0000BB5
:101F100024E011F8010C6C2834D1002011F8023CA7
:101F200083466C2BC4D14FF0080A5346D3E708F11F
:101F3000070828F00708073424F00704F8E802AB84
:101F400035B106982044B0423FF63BAFC4E900AB40
:101F50004FF0000B08344FF0080A534611F8010FF8
:101F6000002878D0BBF1000F7FF46DAF2528F5D1A4
:101F70004FF0010B019B013301934FF0040AECE792
:101F8000584693E700208346A5E7082B02D06FF060
:101F9000150018E708F1070828F00708B8EC027BDD
:101FA00084ED007B08230834D8E768B9042B02D1FC
:101FB00008F10408A4E7082BE9D108F1070828F084
:101FC000070808F10808EDE705980138059058F86A
:101FD000040B00900DE7039A900720D54FF0010CF9
:101FE000A4EB050E4FEA9E00BEF5007FCFD20F2F67
:101FF000CDD8F5B107F140020DEB020E019AC0B247
:102000000EF8200C0EF8102CBCF1000F3FF417AFA7
:1020100060F07F000EF8200C09F101090137C5F1CD
:1020200008024FF6DA7E0434069297E74FF0000C70
:10203000DAE7BCF1000F01D00136EFE7029A023671
:10204000002AEBD10098CDE90631FEF78DFDDDE9E0
:1020500006310644E2E7631BB3F5806F97D23DB9C2
:10206000A6F10804E018AEE6C8ED0100F82602006B
:10207000029A9B0828602B709DF81030C2B1EB705B
:1020800085F80290B9F1000F05D0002208A8C5F12B
:10209000010C97420ED14FF0000AC5F101030DF17A
:1020A000200801930DF1300B574512D1601B8AE6D1
:1020B0006B70E5E710F8013B190608D504EB0C0E30
:1020C000764503F07F03FFF47CAE04F8013B013258
:1020D000DFE7B9F1000F03D098F90020002A17DBE1
:1020E000029BD3B11AF80B2004F8012B0022019BAC
:1020F000981820448642FFF464AE98F800000099D6
:1021000004F8010B2046039219F0C5F9039A144410
:102110000AF1010A08F10108C6E798F8002055F80D
:1021200022300093029B009845F82230FEF71CFDF8
:10213000421CDCE76FF00D0045E600BF014B186064
:10214000704700BFB000002030B5002587B0CDE952
:1021500003010446009503A905480595FEF70CFD0B
:10216000DDE904309842B8BF255407B030BD00BF48
:10217000096501002DE9F047858B04462807904644
:1021800011D4022905F0070540F0CD80204614F057
:10219000BBFC78B10138A18B042811D8DFE800F02E
:1021A000C3106D85950001290CBF45F0100545F061
:1021B0002005A58388F31188BFF36F8FBDE8F087F2
:1021C00001F0070AAA4500F0A6800027B9463E465E
:1021D000A368002B00F0BD8041F00801A18388F3C3
:1021E0001188BFF36F8FA168002900F0BB800D68D4
:1021F000002900F0B780334652462046D1F80480CB
:10220000C047002D76D02B6829461D46F0E701F027
:1022100007035A1F012A1BD8002221F00701062BB1
:10222000276889B2C4E9002209D13B4603E0E28B6A
:102230000132E2831B68002BF9D141F002012046F4
:10224000A18314F061FC00287BD041F0200177E0ED
:10225000042B0AD121F0070189B22046A18314F092
:1022600053FC10B141F02001A183A18B01F0070ABA
:10227000AA4550D00027B946AAE7236921F00701F3
:1022800041F00601062DD3F80090A1832DD1B9F1BC
:10229000000F40D041F00801A18388F31188BFF3FB
:1022A0006F8F20463949C84729E021F0070123698B
:1022B00041F0040189B2042DD3F80490A183E6D043
:1022C00000274FF0040A3E4682E721F00701236908
:1022D00041F0050189B2052DD3F80890A183D6D02D
:1022E00000274FF0050A3E4672E700274FF0060A26
:1022F0003E466DE72B4687E7B9F1000FD1D14FF08D
:102300002003EFF3118883F31288BFF36F8FA38B41
:1023100023F00803A383A58BEA062ED525F010032E
:10232000A38305F00705A669A18B002EBFF66FAF4A
:1023300000232768C4E9003321F0070141F00101BF
:10234000A183A18B4FF0000901F0070AAA457FF491
:102350003FAF002F9BD041F00801A18388F3118883
:10236000BFF36F8F002FC7D03D68394633465246C2
:10237000204614F0F5FB2F46F4E7AB067FF51AAFC5
:1023800025F02003A38305F00705FFE68D6B010010
:10239000F0B5024601680A270020074E0B461C785C
:1023A0000131355D6D0701D41360F0BD07FB0043BB
:1023B000A3F13000F2E700BF331F02002DE9F84F10
:1023C00015469A46D378224A6F2B12F803B08046FE
:1023D0000F460BF0030B29D024D8582B0CBF102626
:1023E0000A26DDF828903246002340463946FDF79C
:1023F000B3FE092AD4B21ED83034B045E4B277F126
:10240000000709F8014D01D3D14511D82B789B065F
:1024100005D5082E15D1AB7843F00803AB704846BC
:10242000BDE8F88F03F0F703702BD7E70826D8E74D
:1024300080460F46D7E7BBF1010F0CBF3734573446
:10244000DBE7102EEBD1AB7843F01003E6E700BFDB
:10245000331F0200044608B54FF02002EFF311834A
:1024600082F31288BFF36F8F07F032FD204603F02E
:10247000D5FA034814F05DF802F09AFDFCE700BFBE
:102480002E03020010B5094B094C00F01F02400951
:10249000012818BF234603EB8203D3F8002222F061
:1024A000E04242EA0172C3F8002210BD00288450C5
:1024B0000025845070B54FF02003EFF3118683F3AD
:1024C0001288BFF36F8F0124134B144DC3F80045DE
:1024D00002230321C5F8D0360020FFF7D3FF2046A2
:1024E000FFF7D0FF2146C5F804472120C5F804496D
:1024F000C5F8004BFFF7C6FF2020FFF7C3FF0B20F6
:10250000FFF7C0FF0A20FFF7BDFF86F31188BFF376
:102510006F8F002070BD00BF0010005000400050C1
:10252000052370B5144D154E2C780134B4FBF3F32C
:1025300003EB8303E41A17F0A0F8114A137823B1D0
:1025400056F82430C01A072814D94FF05023D3F876
:10255000141141B10021C3F81411D3F814312C70B7
:102560000CB9012313702C7817F087F846F8240073
:10257000012070BD0020FCE747740020982F002048
:102580004674002048B1054B054A1B68B3FBF2F3C3
:102590005843044B43F0010318477047AC02002036
:1025A00040420F00F0F30100062807D10122044B3E
:1025B000C3F80025BFF34F8F20BFFDE7704700BF72
:1025C000004000507FB50BAB05930393054B0122F0
:1025D000029300231846CDE9003300F039FD07B01F
:1025E0005DF804FB5B03020070B586B005A80AF035
:1025F00003FD284B984249D107F002FC041E0FDA74
:102600009DF814000AF0FEFC234B012202930023E4
:1026100022491846CDE900330394FFF7D3FF32E097
:1026200040F607031E4D8DF81540AE68ADF8163024
:102630007468059B14B96FF05704E5E70821284634
:10264000184AA047041EDFDB3369002BF3D00122B8
:10265000082128469847041ED6DB01239DF8145014
:10266000114AAB40C2F804359DF815009DF817607B
:1026700016F0F8FF0D4B45F00045B600C0F880504D
:102680009D51002CC0D1204606B070BD6FF01204E1
:10269000BAE700BF0000AD0B5B03020074F301005A
:1026A00038EF0100F52600000070015080A10250B3
:1026B00038B5049CC4F30725284607F093FA002197
:1026C0000A4BA20B02F0FC02C0F8801099500123C3
:1026D000E4B2074AA3402846C2F8083507F0AEFB2B
:1026E0002046BDE838400AF08DBC00BF80A00250F3
:1026F00000700150F7B5144683681B690BB10022C6
:102700009847C4F30726304607F074FA054630466A
:1027100016F0A8FF0027104B220E9200C0F8807020
:102720009F50304607F05EFAA20B0C4B02F0FC0201
:102730001344E2B242F000421A60094BC0F8802014
:1027400005F13202009330463B460194520016F0E8
:1027500092FF03B0F0BD00BF80A1025080A00250E4
:10276000B12600000AF0A6BA1FB5034660B9114AA7
:102770000090CDE901021049012214F0DEFB6FF058
:10278000150005B05DF804FB83685BB90B4A184679
:10279000CDE9013208490122009314F0CEFB6FF01D
:1027A0000400EEE71B681BB105B05DF804EB1847A9
:1027B0001846E6E7930302006CF20100A40302004E
:1027C00030B585B008B101B16AB9134B012202934B
:1027D000002312491846CDE9003314F0AEFB6FF028
:1027E000150005B030BD84680CB1E56865B90C4BC7
:1027F00001220293002309491846CDE9003314F061
:102800009CFB6FF00400ECE741F8040BE36805B0B3
:10281000BDE83040184700BFC20302006CF201005F
:10282000A403020030B51346044685B060B9194BC5
:102830000090CDE9010301220346174914F07DFB06
:102840006FF0150005B030BD006858B9134B00900B
:10285000CDE90103012203460F4914F06EFB6FF02E
:102860000100EFE782680AB1956865B90C4B012257
:102870000293002308491846CDE9003314F05DFBAC
:102880006FF00400DEE70A46AC46616805B0BDE8BB
:1028900030406047EE0302006CF20100FF030200CB
:1028A000A40302000020014B1860704700000720BD
:1028B00030B50C460E4985B00291D0F8AC110546F2
:1028C000CDE9003100F1E0014FF0FF3320460CF07C
:1028D000C1F850B9012384F86430D5F8A83123B188
:1028E000204605B0BDE83040184705B030BD00BFF8
:1028F0004B70010038B50C461146054614F0A7FB95
:10290000034638B92846044914F0A1FB03460020C9
:10291000236038BD0120FBE73B2202002DE9F04F88
:10292000012381460569466885B005F56B77D7E8D0
:10293000EF2F002A03D1C7E8E13F0029F7D140F08B
:10294000B880B368B26A043B2632B3EB420F4FEA59
:10295000420126BFB3FBF1F3B3FA83F300234FF038
:10296000010428BFC3F12003013B9C4005F5E47836
:1029700000F099801022082170689A4002EB44020E
:10298000043099400932C5F86002063122F0030292
:102990000A44B16A01FA03FC510001EB4C01C5F88D
:1029A0006412B16A994000EB4103C5F85832033311
:1029B000134423F00303C5F854327368C5F85C422E
:1029C000C5F850323C4B4046C5E9A963316800F078
:1029D000BBF9044630BBD9F804A0D9F81090DAE965
:1029E000073409F5307B012B584608BF103C18F01E
:1029F00001FB0023DAF8240030494FF4806201EB38
:102A000080210093584623460DF0A0F809F52C705C
:102A10002B4918F0B1FADAF8140083685C681CB925
:102A20006FF05704002137E04B46264ADAF81810B9
:102A3000A04704460028F5D1DAF8140083681B6922
:102A4000002BEDD00122DAF8181098470446002830
:102A5000E8D11D4B2846C5F8A8311C4BC5F8AC3150
:102A60001B4B0393D5F810320293D5F80832CDE909
:102A70000083D5F86832B26AD5F8A81300F02CF9B3
:102A800004460028CED105F1E0000CF08FF80028B4
:102A9000C5F8B0030ADB0221384614F00DFB2046CE
:102AA00005B0BDE8F08F6FF00B04BBE76FF01504C5
:102AB000B8E76FF07704F2E7A170010040A10020B1
:102AC000877001007B700100D52A00000F720100A1
:102AD000E970010013B5044640B100230122CDE99D
:102AE0000032074BD0E909120BF068FFA36E1B6898
:102AF00023B1E06E02B0BDE81040184702B010BD2F
:102B00003B22020013B504460846216901F56B71AA
:102B1000D1E8AF1F022910D193B1A0B10121CDE9B5
:102B200000311346D0E909120BF048FF074B9842D9
:102B300008BF6FF00B0002B010BD6FF00F00FAE796
:102B40006FF04C00F7E76FF00100F4E72EF8FFFF9D
:102B50002DE9F74388461546066906F56B73D3E8F9
:102B6000AF3F022B5FD1136823B96FF0150003B09C
:102B7000BDE8F0831B78002BF7D0D6F8A893B9F105
:102B8000000F33D106F5D8774FF0FF324FF0FF3307
:102B900038460CF029FE30462A6801A9FFF7AAFE44
:102BA000019C1CB9384614F085FADEE705F10803EC
:102BB000A3666B6984F86490E366E46360B13846A9
:102BC00014F078FA21463046236E2A68FFF770FE2B
:102BD0000020C8F80040CAE72022296804F140001C
:102BE00018F048FD384614F065FAF1E730460F4911
:102BF00014F02DFA04460028B7D005F108038366C7
:102C00006B69C063C366002380F8643020222968A2
:102C1000403018F02FFD22460121304600F03EF8EA
:102C20000028D5D0A1E76FF00F00A0E73B220200FB
:102C30002DE9F04F05460E4690460027D0F8B0A08B
:102C400085B0AAF5AE7421463046FDF783FFE0B9A2
:102C5000114BA4F1400B0293DAF810303246CDE963
:102C6000008329464FF0FF335846AAF5CE790BF082
:102C7000F1FE60B97023012203FB079383F86420FF
:102C8000DAF80C300BB158469847703417B105B0DC
:102C9000BDE8F08F0127D6E7717201001FB5144619
:102CA00090B18AB1012912D10A4B00F1E0010293DF
:102CB000D0F8AC31403201934FF0FF3320460093FF
:102CC0000BF0C8FE04B010BD6FF01500FAE700204D
:102CD000F8E700BF717201002DE9F04387B00E469E
:102CE000DDE90E811446DDE910251F4630B329B316
:102CF000DFF850C000F1E009002D08BF65469EB91D
:102D0000CDE9034400F5CE742046059617F0A8FEE1
:102D100003ABCDE900432A463B46414648460BF00B
:102D20006BFF07B0BDE8F083002241460E92484693
:102D30002A4607B0BDE8F0430CF088B86FF01500E4
:102D4000EFE700BF312C0000F0B50E46044689B015
:102D500000286FD001230246C3630023D0F89810E7
:102D6000364F403040F80C7C42F8301FCDE901333B
:102D70004FF0FF330093C36D17F030F9304A06ABC4
:102D800092E8030083E8030018460BF037FD054680
:102D9000D8B904F134000BF013FD0546A8B9394643
:102DA000284805AA17F0F6F8054670B9059B9A68F9
:102DB00072B10C33D4F89400C4F8A03014F089FA3E
:102DC000C4F8D40030B96FF00B05284609B0F0BD47
:102DD0000346EFE7D4F8940014F07BFAC4F8D80067
:102DE0000028F0D0D4F88C30D4F8A010C4F8A83063
:102DF0000423C4F8AC30C4F8C4300223A362124BDD
:102E0000B4F89420D4F8D470C4F8B810C4F8D01032
:102E1000D4F89010236204F1A403A4F8B020C4F8FD
:102E2000A470C4F8C010A4F8C820C4F8BC00A661FF
:102E3000E362CAE76FF01505C7E700BF2904020087
:102E4000C0F301003304020024F401002DE9F84F1F
:102E500081462F480F4614F07EFA064670B92D4C75
:102E60000546A0464FF0010BDFF8ACA0544507D350
:102E7000B9F1000F02D04FF0010AE5B9BDE8F88FB3
:102E8000237B73B12368DB680BB120469847236826
:102E90001B6943B9636804222046196800F0C4F82E
:102EA00001361034E2E7204698470028F2D00BFAAA
:102EB00006F31D43F4E7A94695FAA5F4B4FA84F4A1
:102EC0000AFA04F3260108EB04146FEA030B25EA5F
:102ED0000305237B63B158F806301B6993B9464458
:102EE000736804222046196809EA0B0900F09CF86F
:102EF000002DE1D127B14FF4A47000210DF0EAF9C3
:102F00004D46BAE7204698470028F1D1E7E700BFD1
:102F1000B42F0020ACF30100BCF30100014B53F8C7
:102F20002000704748F4010008B5034608462BB15D
:102F3000044A136000F07CFA002008BD6FF0150011
:102F4000FBE700BFE00000200023054A4FF40041EA
:102F50001370044A04481360044A1360FFF7E4BF87
:102F600048740020AC2F002053730100B02F0020C4
:102F700070B50B4D297841B90120FFF767FF094C67
:102F8000094EB44202D301232B7070BD63685B7994
:102F90001BB1236820469B6898471034F1E700BFB7
:102FA00048740020ACF30100BCF3010010B50446E6
:102FB000064814F0D0F93CB1054BD3E8EF1F0139B6
:102FC000C3E8E21F002AF8D110BD00BFAC2F0020DB
:102FD000B02F002070B50A4B05461B689847094C76
:102FE000094EA860B44200D370BD63685B7923B119
:102FF0002368294620461B6898471034F2E700BF33
:10300000E0000020ACF30100BCF30100044A054BD2
:103010009B1AB1EBD30F34BF52F831000020704738
:103020001CF20100ACF30100084B10B4C31A446851
:103030001B110133237143689A710122436819609F
:1030400043685A715DF8044B14F0A3B9ACF3010066
:103050002DE9F04F85B002AF0446D7E90EA90E4620
:10306000934698463D6BBAF1000F33D0C7F80490F1
:10307000CDF800901021534600207A6BFEF78AFEAF
:103080000146154A04F007040BF0070BE40044EA7C
:103090008B1402EA4122144344EA055417350D44C7
:1030A00025F00705ADEB050D02ADBAF1000F07D015
:1030B000CDF8009053467A6B05F11000FEF76AFEDA
:1030C000434622463146284614F066F90C37BD4681
:1030D000BDE8F08F5146D4E700FE0F000EB403B5F3
:1030E00003AB53F8042B01460448019314F096F9FE
:1030F00002B05DF804EB03B0704700BFCB73010072
:10310000CA0605D48B064CBF02490349FFF7E6BF48
:10311000704700BF3A220200392202002DE9F04F29
:103120008BB09A46DDE915739DF850B00693179B56
:1031300004460D46189E08920593BBF1000F00F05F
:10314000858006F00103099306F00803079314F045
:1031500021F906F002090246002847D0204684499A
:10316000FFF7BCFF8046B9F1000F08D016F0440FFE
:103170003ED12A4620467F49FFF7B0FF8044099B95
:1031800053B17D4B204653F82B207C4B7C49002AC1
:1031900008BF1A46FFF7A2FF079B002B54D0794BBC
:1031A000204653F82B207849FFF798FF0546089BE7
:1031B0002BB11A4620467549FFF790FF0544BAF136
:1031C000000F05D0524620467149FFF787FF05449E
:1031D0004544002F48D1059B002B4ED1F30700F149
:1031E000C08031462046FFF78BFFB4E08046BAE747
:1031F000684B18680028C1D0674B4FF47A791B6878
:103200004FF46161B5FBF3F5B5FBF0F300FB13552B
:1032100009FB05F5B3FBF1F2B5FBF0FE4FF03C0CFA
:1032200001FB123100FB1E55B1FBFCF309FB05F558
:10323000B5FBF0F50CFB131120460091CDE901E53B
:103240005649FFF74BFF99E7079DB0E7BAF1010F29
:1032500006D1002F65D1059B002B7CD000250CE00A
:10326000002FF8D04E485DE04E483B4622464E497E
:1032700013F017F9059B002B69D0DFF84081DFF8C8
:103280004091059F3146102F204628BF10274FF050
:10329000000AFFF735FF554546DC069B49462046A8
:1032A0001A78FFF71BFF4FF0010A1AF0070F03D13E
:1032B00041462046FFF712FF57453CD9069B494639
:1032C000204613F80A20FFF709FF0AF1010ABAF1B4
:1032D000100FEAD14FF0000A20463449FFF7FEFEF6
:1032E0005246069B20469A5C314B995C11F0970F31
:1032F00008BF2E222F49FFF7F1FE0AF1010ABAF1A9
:10330000100F1DD01AF0070F03D141462046FFF7DA
:10331000E5FE57455246E4D841462046FFF7DEFE1B
:10332000EBE720485D46A0E741462046FFF7D6FE82
:103330000AF1010AAFE720461F49FFF7CFFEC4E7B5
:10334000069B3B440693059BDB1B059399D1BBF180
:10335000000F7FF443AF20460BB0BDE8F04F14F0F0
:1033600064B82046054A0649FFF7B8FE39E700BFB2
:103370004D0402005104020058F401004804020008
:10338000652302006CF40100760402007C04020054
:10339000B4200200BC2F0020B82F00205A040200E5
:1033A000E7730100CB7301001D7401008604020065
:1033B000331F020088040200C81D0200CA1D02005B
:1033C000800402002DE9F0410F884B6805460C4649
:1033D00090468E6886B0C7F382175BB1134A9B1A7A
:1033E00043F3CF0100291FDB2078C0F3C200FFF7B1
:1033F0000DFE0346214651F8102B6088C2F34A2285
:10340000002A01EB020408BF0021C0F30B10CDE934
:103410000308CDE901140022314628460097FFF742
:103420007DFE06B0BDE8F0810023E3E71CF2010059
:1034300000210123064A904206D8064A01B9012319
:103440001360054B18607047012140085B00F2E7EC
:1034500040420F00B82F0020BC2F00200122014B5A
:103460001A70704749740020014B002019607047A2
:10347000D42F00200122024B02481A7013F0D5BF4E
:103480004A7400209CF4010010B5064B0C461868E5
:10349000FFF744FD2146BDE8104003460F220248D5
:1034A000184700BFD42F00209CF40100F8B5074650
:1034B0000E460424174D3246394600200BF00CFD11
:1034C000C8B101232B70144B1B782BB93046F8BDC3
:1034D0005CB92C704FF0FF3400200BF071FD002818
:1034E000F4D02B78002BF3D1F0E7013C41F2883087
:1034F00017F0E8FEF0E72B7813B1013C04D12C70F3
:103500002B78002BD7D1E1E741F2883017F0DAFEB3
:10351000F6E700BF497400204A7400202DE9F84303
:1035200005464FF02003EFF3118683F31288BFF3B3
:103530006F8F4FF00C090D4B0D4F1C68DFF8348076
:103540002CB986F31188BFF36F8FBDE8F883D4E9F7
:103550000123002D18BF13462BB198F8142009FB46
:1035600002F2B85C98472468EAE700BFF02F002019
:10357000E42F002018690020012270B5164B1C7D35
:1035800004F01F039A40D043144B610903EB8103FD
:10359000D3E8EF1F01EA0005C3E8E65F002EF7D18C
:1035A0000A4213D00E4B0F4D8BB10C236343EA1824
:1035B0005178E85C13F0BBFC0020FFF7AFFF0C2351
:1035C0005C4300232A192B51C2E9013370BD83F3F8
:1035D0001188BFF36F8FEFE718690020F82F0020E4
:1035E0002F6F0100E42F00202DE9F041324B0746F8
:1035F0001D7D4FF02003EFF3118883F31288BFF392
:103600006F8F0C246C432D4B2D4E195D1A19002918
:1036100047D007CA06EB040C8CE8070000221A55B5
:1036200088F31188BFF36F8F0C236B43F05CF218A3
:10363000A8B37B1C10D04FF400400021D2F808C082
:10364000204C0023ECFB00411F4A2046FCF784FD80
:103650000121381A06F000FC0CF082FD0120FFF772
:103660005DFF1A4B6A0903EB8203012205F01F017B
:103670008A40D3E8EF0F1043C3E8E10F0029F8D1E7
:10368000134B3BB10C2303FB05F033185978305C26
:10369000FEF78AFFFFF770FF0CF076FD0120BDE812
:1036A000F0810146284600F015F80028B8D007C878
:1036B000344484E80700B3E718690020D82F0020BD
:1036C000E42F00203F420F0040420F00F82F00205F
:1036D000A92500002DE9F04F85B00E4603A900F0A2
:1036E00043F84FF4004704464FF0000B1B4B039D7B
:1036F000D3F800A0431E1BB203EB4303DFF8648042
:1037000005EB830524B9A146484605B0BDE8F08F16
:10371000C446594668680023E0FB07C1104A60466A
:10372000FCF71AFDC44659460190A8680023E0FB47
:1037300007C10B4A6046FCF70FFDBAF1FF3FA946EF
:1037400001D0824505D9731CDED0019B1844B042DC
:10375000DAD9013CA4B20C3DD4E700BFE40000205C
:1037600040420F003F420F0008B9024B0B6000209F
:10377000704700BFACF40100F0B40C4B0C4E5F6A14
:103780000C4BB34203D36FF08500F0BC70475D680B
:10379000BD4209D31C693CB195F802C00579AC451E
:1037A00002D12346F0BC18472433EAE7FC2F00205F
:1037B000DC070020B80700202DE9F04705460E463B
:1037C0001746124CDFF84880DFF84890444503D391
:1037D0006FF08500BDE8F0876268D9F824309A421E
:1037E00012D3A36983B190782979884205D13A46EA
:1037F00031462846BDE8F04718475279012A03D1DF
:103800003A463146284698472434DFE7B807002077
:10381000DC070020FC2F00202DE9F04105460E4674
:1038200017460A4CDFF82880444502D36FF0850024
:1038300009E063690BB92434F6E73A463146284675
:1038400098470028F7D1BDE8F08100BFB8070020F5
:10385000DC0700200022024B1A605A60704700BF4C
:10386000B730002070B50B4B0B4CA34201D30020A6
:1038700070BD0022196A1E7F0439D5B2AE4201D84C
:103880002433F2E7013211F832508542F5D101209C
:10389000EEE700BFB8070020DC07002008B50948A4
:1038A0000378C3F341130A3350F823303BB100F1DE
:1038B000080200F110019847C043C00F08BD184628
:1038C000FCE700BFFC2F002010F0700F1FB500F0C8
:1038D0007F030ED000240B4B039002932046234617
:1038E0000122CDE90044084913F0ACFD204604B0A4
:1038F00010BD10F0800F4FF0010018BF103398403A
:10390000F5E700BFBE04020094F3010030B585B0B6
:10391000054615F0CBFA10F1780F044616D1134B7B
:1039200002220293002312491846CDE90033039581
:1039300013F088FD2846FFF7C7FF0E4A0024D2F88F
:10394000C43023EA0003C2F8C4300CE00028F1D0F0
:10395000094B01220293002305491846CDE90033A3
:10396000039513F06FFD204605B030BDD904020069
:1039700094F30100FC2F0020FA04020004282DE932
:10398000F74F04460F46DFF8A09015D001282FD13D
:10399000DFF8908098F8B93053B300F0F9FE204D6D
:1039A0004D4522D24FF0000A2A6A2B7F5FFA8AF631
:1039B000B34204D82435F3E7FFF74CFFE8E702EB06
:1039C000C6063079019215F071FA83463079FFF717
:1039D0007BFFD8F8C430BBF1000F23EA0003019A43
:1039E000C8F8C4300AF1010ADFDA002388F8B930D8
:1039F0000B4D4D4508D30B4B1B6A6BB13946204626
:103A000003B0BDE8F04F1847EB681BB13A462146BA
:103A1000284698472435ECE703B0BDE8F08F00BF97
:103A2000B8070020FC2F0020DC07002070B5C4B2CE
:103A300086B063060D468DF8174007D02046FFF785
:103A400011FFD8B1194B93F8BA00B8B1174E0394CF
:103A5000B5B1174B03220293002316491846CDE94E
:103A6000003313F0EFFC9DF8170004F0D3F8F3696E
:103A70001BB108200DF117019847012006B070BD59
:103A80000D4B03222846CDE901530A492B460095E8
:103A900013F0D8FC9DF8170004F0F4F8F369002B3C
:103AA000EBD009200DF11701E6E700BFFC2F002045
:103AB0001C05020094F301002F05020070B50446B6
:103AC000807886B08DF8100023796279324D43EA10
:103AD0000223ADF81230E37803F003038DF81430BD
:103AE000FFF7F2FED5F8C430064618420CD0A47891
:103AF000204600F02FFE2046FFF708FF17F001F9DF
:103B000010B996200CF000FC04A804F04FF810F156
:103B1000780F9DF8103027D10393204B0222029397
:103B200000231F491846CDE9003313F08BFC9DF8A4
:103B3000100004F0E3F810F1780F25D19DF8103053
:103B400002220393174B1649029300231846CDE92E
:103B5000003313F077FC0120D5F8C43085F8B900A4
:103B60003343C5F8C4300DE00028E0D003930E4B7A
:103B70000293002301221846CDE90033084913F0CF
:103B800061FC002006B070BD0028E4D09DF8103024
:103B90000393064BECE700BFFC2F00204405020016
:103BA00094F301008B05020067050200AB050200DB
:103BB0002DE9F047924D0446AB690E461746C3B94E
:103BC000207800F01F00012876D0022800F0DC8069
:103BD00000BB94F900103A68002963782EDA062BAE
:103BE0000CD0082B25D0ABB95370012313700223DE
:103BF00003E198470028E3D100200DE06388190A0B
:103C00000A1F012A8C4605D9072903D8DAB26B6A44
:103C10001C781CB96FF01500BDE8F0875D7865452C
:103C200003D1824200F0E48001302344F0E71B78A6
:103C3000E3E095F8BA3013700123DEE0052B11D0D4
:103C4000092BE7D163886E6A002B32D1FFF702FEA1
:103C5000638885F8BA30EB69002BCDD00320694921
:103C60009847C9E7A07803F05DFF0028C4D0D1E7EA
:103C70007378042B10D0052B11D0022B04D1777947
:103C80006388BB4208BF012033781E443378002B81
:103C9000EED10028BED0D9E796F80380F4E7638818
:103CA000BB42F1D1B8F1000FEED13046FFF706FF6D
:103CB000EAE7FF27B846E9E795F8BA30D7F800C039
:103CC000002BA7D06F6AA2883B4694F804E01878CE
:103CD00000289FD05978022904D193F80480F04538
:103CE00000F292800344F2E78CF800308CF8013047
:103CF000316081E71F4493E00B2B8BD100264FF0FE
:103D0000FF08B246C14606E07B78042B0FD0052B96
:103D100021D03B781F443B78002BF5D1EB6913B1E0
:103D2000514607209847002E7FF466AF72E797F858
:103D30000280A38897F803909845EAD16388994553
:103D4000E7D1B8F1070F1CD805EB0803BA460126E6
:103D500083F8BB90DDE7A3884345DAD1A3784B45D0
:103D60000AD0BE78304600F0F5FC3046FFF7CEFDB5
:103D7000B0FA80F67609CCE73846FFF79FFE064694
:103D8000C7E7BA460026C4E794F900206378002A02
:103D900018DA002B7FF43EAF24793F6863060AD01F
:103DA0002046FFF75FFD00283FF434AF95F8BA30A6
:103DB000002B3FF42FAF3946204603F083FF00234A
:103DC0007B7014E7012B08D0032B7FF423AF6388AB
:103DD000002B7FF41FAF012103E0618800297FF4ED
:103DE00019AFA088FFF722FE00287FF405AF11E786
:103DF00002293B607FF41BAF5B883360FCE600BFA9
:103E0000FC2F0020B630002094F9000063780028D1
:103E1000BFF672AF002B3FF467AF0A2B7FF4FAAE08
:103E20003B78002B3FF4F6AE797804297FF462AF3B
:103E3000B9788A427FF45EAF072A8EBF00235219F9
:103E400092F8BB308CF80030F6E600BF2DE9F04F59
:103E500005460F469046994604264FF0000ADFF8C3
:103E600040B085B04B4642463946284603F070FFC5
:103E700010F10B0F04460DD1002302221846CDE9A4
:103E800002B5CDE900AA054913F0DCFA0CF0A0F95F
:103E9000013EE7D1204605B0BDE8F08F94F3010064
:103EA000CC05020013B5134C237DCBB9E26801ABFE
:103EB0008020A1680192FFF7C9FF019AA36813440B
:103EC000A360E3689B1AE36043B93AB12369E288CF
:103ED0009A4203DD9B0601D10123237502B010BD78
:103EE000002380201A461946237502B0BDE8104011
:103EF00003F02EBFFC2F0020002370B588B00D46C4
:103F000006460593002866D100293ED10B460822BB
:103F100006A914F0E4FF002804DA802003F07AFEFA
:103F200008B070BD314C069AC4E903552260079A67
:103F3000BDF81E30626004F13802A2609DF91820BD
:103F40002575002A14DB802B0ED9294B0122284627
:103F5000CDE9015327492B46009513F073FA8020D1
:103F600003F058FE2846D9E713B1C4E90333D7E775
:103F7000FFF794FC0028D0D0E28823699A42D4BF8E
:103F8000E260E360FFF78EFFCAE7184C05ABD4E9A7
:103F90000212002A05DC024614F0A1FF0028BFDA55
:103FA000BBE714F09CFF002804DA802003F032FE07
:103FB0003046B3E7059AA3681344A360E3689B1AED
:103FC000E360002BACD104F13803A360FFF766FC7B
:103FD0000028D7D1A1E78028A2D1044BDA68002AB3
:103FE000D0D11B7D002BCDD19AE700BFFC2F002044
:103FF000F305020094F30100054B064A58629A62E9
:10400000054A0020DA62054A1A63054A9A61704738
:10401000FC2F0020B13B0000793700001938000068
:10402000B93700001FB50D4B93F8B8409CB900F0AC
:10403000F3F8034658B90A4A0090CDE9010209494C
:10404000012213F0FFF94FF0FF3004B010BDFFF76D
:10405000D3FF2046F9E76FF07700F6E7FC2F00204A
:104060000C06020094F301002DE9F041044686B0ED
:104070003F4D4FF0FF324FF0FF333E480BF0B4FBA3
:1040800095F8B86096B13C4B0222029300233B495D
:104090001846CDE9003313F0D5F96FF077043548B1
:1040A0000BF01CFC204606B0BDE8F08134482C62C1
:1040B000E86103F0A5FF03F003FD041EEFDB00F051
:1040C0008BFB041EEBDB402304A8ADF812308DF807
:1040D00014608DF8106003F069FD041EDFDB80279B
:1040E00004A88DF8107003F061FD041ED7DB304684
:1040F000244903F071FF041ED1DB3846214903F047
:104100006BFF041ECBDB204CDFF8808044451AD3C4
:10411000002003F0F3FD041EC1DBD5F8C43080207D
:1041200043F00103C5F8C43003F0E8FD041EB6DB1C
:10413000D5F8C430002443F48033C5F8C4300123DB
:1041400085F8B830ABE70026276A227FF3B29A429F
:1041500001D82434DAE707EBC30257F8331010799B
:1041600003F03AFF01360028EFD04FF0FF3496E716
:10417000FC2F00207C0500203106020094F3010092
:104180007D390000F93E0000B8070020DC07002060
:1041900030B51F4B8BB005AA03F110051446186803
:1041A0005968083303C4AB422246F7D11B7810226A
:1041B0002370002101A817F0A8F912220021154848
:1041C00017F0A3F9102101A814F0EBFF00281BDD64
:1041D0000828B8BF082001AB09381A1800200D497B
:1041E00012F8013F0AAC04EB131403F00F03283359
:1041F0006B4414F8144C13F8143C013008280C706C
:104200004B7001F10201EBD102480BB030BD00BF91
:104210005F0602004C7400202DE9F04F7F4C89B0FE
:1042200000264FF0011BB2463546374623783BB98E
:104230007B4B02349C42F3D1784809B0BDE8F08F43
:104240006378052B05D8DFE803F0A30403A307393F
:10425000274623781C44E9E7E378002BF9D1A378BB
:104260001BB30AF1010A5FFA8AFAF2E76B689C4213
:104270001DD024356B4B9D42F8D36B4B012202932A
:1042800000236A491846CDE90033039413F0E9F896
:104290000024674B2046029301222346CDE90044C7
:1042A000624913F0DEF82046C7E7624DE2E7AB68EB
:1042B000002BD6D0514620469847D2E7002D64D136
:1042C0005D4B0095CDE901532B4601221846574915
:1042D00013F0C7F8DCE72A6A94F802C002EBC302C5
:1042E0001079844509D001332A7F9342F3D3534B8D
:1042F00002930023CDE90033E7E74FF00108E078AF
:104300005FFA88F900F003008DF81C00207994F81A
:1043100005C040EA0C20ADF81A0094F9020000280C
:1043200026DA08F1100001FA00F010EA0B0F26D18E
:1043300049F080008DF8180006A8CDE9043203F09A
:1043400003FCDDE904320121C8B99DF8183013F0EF
:10435000800FA37013710B461DBF09F110095FFA9E
:1043600089F901FA09F303FA08F34BEA030B70E742
:1043700001FA08F010EA0B0F01D14846DAE708F11C
:104380000108B8F1100FBAD1ADE700230121ABE766
:10439000032E29D1FFF7FCFE804670B1FCF7E4FB49
:1043A00058B1102815D0264B0122029300231F4933
:1043B0001846CDE9003313F054F86FF0020123786A
:1043C000091BE21804EB5303D14216D50136F6B2AD
:1043D0003FE74046A31C08F1100250F8041B90422E
:1043E00043F8041BF9D1E8E7002EE6D177B9154B65
:1043F0000097CDE901733B4667E74FF0000002F8F4
:10440000010C13F8010902F8020DDDE7E31BBB7094
:10441000C3F30723FB7087F804A0D7E7D806002072
:10442000B7070020DC070020700602008CF30100B3
:1044300056070200B807002090060200D1060200CD
:10444000EE06020039070200094B00211A4610B59A
:104450001C78844205D15C681CB1482303FB012011
:1044600010BD0131042903F14803F1D10020F7E721
:10447000C43000202DE9F04150F8303C04461033A0
:1044800010F8345C88B011D1036950F8282C13F06F
:10449000020648D002BB13F0040304D11A461946A1
:1044A0002846FFF7D3FC002344F8303C54F8303C56
:1044B00010330ED054F8206C5EB154F8247C54F8BC
:1044C0001C8C16F01EFC00285FD02146344816F0E4
:1044D00080FD08B0BDE8F08150F82C1C07AB2846E1
:1044E000FFF7B4FC70B12F4BCDE903050293002315
:1044F000CDE90033184601222B4912F0F0FF6FF08E
:104500001503D1E7079A54F82C3C134444F82C3C8B
:1045100054F8283C9B1A44F8283C54F8243C134493
:1045200044F8243CC2E750F82C1C07AB284603F0A3
:10453000A3FC38B11B4BCDE90305CDE9016300961F
:104540003346D7E7079E54F82C3C334444F82C3CC0
:1045500054F8283C9B1B44F8283C54F8243C334432
:1045600044F8243C002E9ED0284603F04FFDB6FBB5
:10457000F0F303FB1066002E95D154F8283C002B75
:1045800091D0284603F0D6FC90E744F8200CA4F123
:1045900018000BF011FA424639462846B04798E712
:1045A000980B002084070200A4F3010070B54B1E95
:1045B000012B06460D4686B018D8FFF745FF044686
:1045C000B0B9012D12D105AB012230460DF1130116
:1045D00003F052FC059B002BF5D10F4A1846CDE99C
:1045E00001320E490122009312F079FF06B070BD2E
:1045F00016F087FB04F1340108B1012D05D10846FE
:1046000006B0BDE87040FFF735BF054806B0BDE80D
:10461000704016F0DEBC00BFA1070200A4F3010049
:10462000980B00202DE9F04F87B0064617469846B4
:10463000049112F064FF044600287BD14FF0200360
:10464000EFF3118283F31288BFF36F8FDFF8FC90D2
:1046500005920023002248460BF0D4F90346C8B95E
:104660004FF0480C0CFB04FCDFF8E4A00AEB0C0B49
:10467000DBF8045015F1100F26D1304A3049CDE94E
:10468000010203960122009012F029FF48460BF028
:1046900093F910E00134042C09F14809D9D1294BD0
:1046A00001220293002326491846CDE9003312F077
:1046B00016FF6FF00B05059B83F31188BFF36F8F17
:1046C000284607B0BDE8F08F109B049ACBF8143051
:1046D000119BCBF81000CBF818306FF00F03304669
:1046E000CBE902270AF80C60CBF84480CBF8043001
:1046F00003F08CFC68B1304603F088FCB7FBF0F3A4
:1047000003FB10772FB1DBF8443043F00403CBF800
:10471000443018F0020F08D0482303FB04A10A48D4
:10472000343116F056FC0025C5E7304603F002FC94
:104730000546C0E76FF00F05C2E700BFD6070200CD
:10474000A4F30100BB070200980B0020E03000201A
:10475000C430002010B54FF02003EFF3118483F331
:104760001288BFF36F8FFFF76FFE50B143681033AD
:1047700007D16FF08B0300F134014360034816F05A
:1047800028FC84F31188BFF36F8F10BD980B0020B5
:1047900070B504250E4C4FF02003EFF3118683F320
:1047A0001288BFF36F8F6368103307D16FF08B03EC
:1047B0000848636004F1340116F00BFC86F311889D
:1047C000BFF36F8F013D04F14804E4D170BD00BF19
:1047D000C4300020980B002070B50025094C0A4E0B
:1047E0003146204616F0C8FB0122A4F118001146FC
:1047F000013516F03EFB042D04F14804F0D10020F1
:1048000070BD00BFF830002075440000012301692D
:1048100081F84B300B6833B191F849301BB1024835
:10482000083116F0D6BB7047980B002001230169B0
:1048300081F84A300B6833B191F848301BB1024817
:10484000083116F0C6BB7047980B0020F0B5D0F8C1
:104850008C3005465B6885B01B6A1F7D384612F0B8
:104860004EFE0646E0B94FF48062A86F03A912F02D
:104870000CFB0446A0B18306A5F1180385F830604F
:104880000193084B08BF00F1FF34039900932246BF
:1048900002233846FFF7C6FE2146A86F12F011FB2F
:1048A00005B0F0BDE5480000002103460C4AA0F821
:1048B0004810106883F89C10C3F89400908892798F
:1048C000A3F8980083F89A2083F89B104022A3F85D
:1048D0009E1083F8A01003F14C0016F016BE00BF26
:1048E000DCF30100012310B582F848301368144648
:1048F0003BB192F84A3023B10A4802F1080116F0A0
:1049000068FBD4F890301A699B689A4208D004F189
:1049100018010022BDE81040002302480BF08CB9BA
:1049200010BD00BF980B002030B5046987B094F823
:104930009E308DF8171013B194F89F305BB11F4B68
:10494000032202930023CDE9003318461C4912F0DC
:1049500061FE07B030BD0122D4F8900084F84830E1
:104960000DF1170112F072FA0546F8B9154B032242
:10497000CDE9010312490346009012F04BFE0122DB
:104980002946D4F8900012F0B1FA30B90E4B01224A
:1049900002930023CDE90033D7E70122D4F8900039
:1049A0000DF1170112F052FA0028EFD02122002356
:1049B00004F1180105480BF03FF9CAE70C080200A2
:1049C00084F301002C0802004B080200980B002021
:1049D000F0B50669154696F89E3085B013B196F885
:1049E0009F7077B10024154B022202932046234684
:1049F000CDE900441249039512F00CFE204605B0A3
:104A0000F0BDD6F8900086F8487012F01FFAA84260
:104A100004460BD20B4B2D1ACDE9017302223B4603
:104A2000384607490395009712F0F4FD0022002351
:104A300006F1180104480BF0FFF8DFE762080200F6
:104A400084F3010094080200980B00201FB5014672
:104A500004460A4812F02DFD034650B9084A094998
:104A6000CDE9010203940222009012F0D3FD04B0BC
:104A700010BD012200F8072CF9E700BFE431002047
:104A8000B508020084F301007FB504460E460179A3
:104A90001B48154612F000FD034668B9A288194963
:104AA0000392194A0090CDE90102022212F0B2FDF0
:104AB0006FF0120004B070BD94F900106278002904
:104AC00016DB202A04D0222A0ED06FF08500F1E7F1
:104AD0002A68116840F8101C918820F80C1C927903
:104AE00000F80A2C0020E5E7628800F8092CF9E7B5
:104AF000212AEAD1A0F110032B6007233360F1E7EC
:104B0000E431002084F30100DB080200F0B50D1E43
:104B10000646144685B002F14C072EDD2A4639467A
:104B2000D4F88C0012F092F9A8420BD2184B2D1A2F
:104B30000293002301221846CDE90033154903955D
:104B400012F068FD012384F8493023683BB194F8E2
:104B50004B3023B1104804F1080116F03AFAD4F8AA
:104B60008C104B684A699A1ACB699B1A3F2B04D860
:104B7000012384F8A03005B0F0BD084B402200931B
:104B80003946012330460194FFF74CFDF3E700BF9F
:104B90009408020084F30100980B00200D4B0000E4
:104BA000F0B506460D4685B00146464812F069FC50
:104BB000044658B9444B0222CDE901034349034658
:104BC0000396009012F026FD05B0F0BD064656F89B
:104BD000A439691E5F680529F6D801A353F821F0AE
:104BE000654C0000C94B0000F94B0000514C00001F
:104BF000714C00008D4C0000354B3449029300236A
:104C000003221846CDE9003312F004FD14F8061C07
:104C100039B93B6A3246187BFFF778FF012304F865
:104C2000063C14F85C3C002BCED1012304F85C3C1C
:104C300054F8A43C002BC7D014F85A3C002BC3D026
:104C40002448A4F19C0105B0BDE8F04016F0C1B9BC
:104C5000214B0322029300231C491846CDE900335F
:104C600012F0D8FC304605B0BDE8F040FFF71CBE9E
:104C70001A4B03220293002314491846CDE900334E
:104C800012F0C8FC012304F8053C9DE70025144BF5
:104C90000322029328462B46CDE900550B4912F01A
:104CA000B9FC14F8053C002B8ED00E4B0322CDE945
:104CB000015328462B460549009512F0ABFC04F839
:104CC000055C81E7E43100200209020084F3010061
:104CD00023090200980B002035090200490902004F
:104CE0005A09020069090200002310B50469C4F8DA
:104CF000A8300C4BC4F8A400596804F1A80269B9A3
:104D0000C3E9002204F10800074916F035F904F15F
:104D10001800064916F074F9002010BD0A605A60A8
:104D2000F0E700BFE4310020297501004D48000084
:104D300030B54FF400334268056942F2A10085B0F6
:104D4000CDE90103002385F89D30106AADF80C1001
:104D50000A22007901A9FFF779F8054C95F89D30F2
:104D600023B9012016F0AEFA013CF7D105B030BDF1
:104D7000A186010037B50024084D4FF0FF334FF4F2
:104D800080622846064900940AF0E0FE054928465C
:104D900015F0BDFF204603B030BD00BF980B0020CA
:104DA00040A500208F09020001480EF015BC00BF8D
:104DB00000F5010038B5044618B90F4B0F485B6881
:104DC00098476168B1F5683F0FD0B1F5680F0CD016
:104DD0000B4DA94209D011F4686107D0214609485A
:104DE00015F066FF00232360656038BD142220683B
:104DF00016F08BFBF8E700BF54030020980902006F
:104E00002C5F5CA9EC36002008B560B34368B3F5AD
:104E1000683F0ED0B3F5680F18D0144A934220D0E3
:104E200000684FF0FF324FF0FF330AF0DDFC58B15D
:104E300015E001220368D3E8EF1F002903D1C3E87E
:104E4000E02F0028F7D10AD1002008BD0368084AE6
:104E50001B7803F5807352F82330002BF4D00548FB
:104E6000F3E70548F1E76FF4E040EEE72C5F5CA95B
:104E700000000350E98FFFFFEA8FFFFF08B520B362
:104E80004368B3F5683F09D0B3F5680F13D0114AF2
:104E900093421DD000680AF021FD14E0002203684F
:104EA000D3E8EF1F012903D1C3E8E02F0028F7D191
:104EB00009D0094808BD00210368084A1B7803F59A
:104EC000807342F823100020F4E76FF4E040F1E72C
:104ED0000348EFE72C5F5CA9E98FFFFF0000035058
:104EE000EA8FFFFF10B5044618B91D4B1D485B68DB
:104EF00098476368B3F5683F2FD0B3F5680F2CD09F
:104F0000194A934219D1236803BB4FF0FF324FF087
:104F1000FF33214615480AF05BFB08B923681BB92B
:104F20000F4B13485B68984714220021206816F045
:104F3000ECFA4FF46863636008E0B3F5683F0DD89E
:104F40003A2B03D040F6BA629342DED1206815F0C6
:104F5000F4FE636843F03A03636010BD054AF3E76B
:104F600054030020980902002C5F5CA9EC36002055
:104F7000BE0902003A00003A08B50649402314224F
:104F8000054815F086FEBDE80840044904480EF0C7
:104F9000E7BB00BFEC310020EC36002008F5010033
:104FA0001CF50100014910220A60704710ED00E075
:104FB00072B6404080F31188BFF36F8F01B5FDF7E3
:104FC000AFFA002802D0BFF34F8F30BFBDE80140D9
:104FD00062B6BFF36F8F704772B6494081F3118894
:104FE00001B5FDF79DFA002802D0BFF34F8F20BF17
:104FF000BDE8014080F3118862B670472DE9F047A3
:1050000080460D468CB0002977D000248B680122A1
:1050100005934B68204604930B683B4903933B4B35
:10502000CDE900440293234612F099FB6B690122FB
:1050300005932B6920460493EB6833490393344B63
:105040000094CDE90143234612F089FBEB6901226C
:105050000393304B2046CDE901432B49234600946E
:1050600012F07DFB2F462646DFF8B490DFF898A0BB
:10507000D7ED0B7AFCEEE77AE31C0993CDED0A7AC3
:10508000D7ED0A7AFCEEE77AA31C0793CDED087AF8
:10509000D7ED097AFCEEE77A631C0593CDED067A2D
:1050A000D7ED087A0023FCEEE77ACDE90294CDED46
:1050B000047A012251461846CDE90066043412F004
:1050C0004EFB102C07F11007D2D12B6E0122039357
:1050D000114B0D49CDE9016300230096184612F0EB
:1050E0003EFBAB69012203930C4B0749CDE90163F9
:1050F00000230096184612F032FB294640460CB0B9
:10510000BDE8F0470AF0EAB83CF30100EB09020001
:105110001A0A0200490A02009B0A0200AA0A0200B7
:10512000580A020040B2002807DB01234109034A64
:1051300000F01F00834042F82130704700E100E09A
:1051400040B200280CDB01220649430900F01F0091
:105150008240203341F82320BFF34F8FBFF36F8F7E
:10516000704700BF00E100E0054B420953F82220E0
:10517000012300F01F0003FA00F01040704700BF49
:1051800000E100E040B2002801F10101ACBF00F1F4
:105190006040064B4FEA4111C9B2ABBF00F5614018
:1051A00000F00F0080F800131954704714ED00E070
:1051B00030BFFFF7FDBF00BF144A08B5144B22F003
:1051C0007F029A60BFF34F8FBFF36F8FD3F88820B1
:1051D00022F47002C3F88820D3F8882042F4A00299
:1051E000C3F888204FF04042C3F83422BFF34F8FFA
:1051F000BFF36F8F0023E1EE103A0AF013F90BF0C2
:1052000015F900F0C9FB0AF04DF900BF00000000DD
:1052100000ED00E0094A0A49936809689867D96770
:1052200008494B6843F080534B60002383F3118897
:10523000BFF36F8F9368D86F704700BF1869002065
:10524000C8F7010000ED00E022498A6882F8C1E059
:105250004FF030001044EFF3098C80E8F01F1EF08F
:10526000100F03D102F1800080EC108A202080F31F
:105270001288BFF36F8F184F4FF000660A6A8A607A
:105280003E6092F9C1E0906F0023936780F311882C
:105290001EF0100F03D00023E1EE103A03E002F1FC
:1052A000800090EC108AEFF3148323F0040383F35F
:1052B0001488BFF36F8F02F1300090E8F01F8CF379
:1052C000098802F1000004B512F068FABDE8044054
:1052D000704700001869002004ED00E01EF0040F84
:1052E0000CBFEFF30880EFF30980816911F8021C0D
:1052F0000229FFD001B512F042FA01BD42F8203C6C
:10530000009B0D4942F81C3C019B21F0010142F831
:10531000183C029B42F8081C42F8143C4FF0807382
:1053200042F8043C002383674FF47D43203A026532
:10533000C0F8C030704700BF676501000023E1EE90
:10534000103AEFF3148323F0040383F31488BFF3BC
:105350006F8FBFF36F8F094B9860836E83F30B8859
:10536000104681F30988002163B681F31188BFF3E9
:105370006F8F0022002311F0F6F800BF186900209B
:1053800001B572B60B4AD06900281EBF0021D16159
:1053900015F0C4FC62B6EFF30580A0F110004FEAEF
:1053A000C0000549014409C99847BDE801400349C7
:1053B000084700001869002080EF0100C153000079
:1053C000044B9968186A884203D003494FF0805211
:1053D0000A6070471869002004ED00E0F0B5002471
:1053E000414B85B00293074623460E4601222046D4
:1053F000CDE900443D4912F0D5F93D4B9B6ADD06ED
:105400006FD53C4B2046CDE9014301222346374965
:10541000009412F0C7F91120354B9B6A1C070AD57E
:10542000354B01220293002330491846CDE9003361
:1054300012F0B8F912202E4DAB6A99071FD500243F
:105440002E4B0122029320462346CDE900442749F2
:1054500012F0A8F96B6BAA6A12060FD50393284BBA
:105460000122CDE90143204623462049009412F051
:1054700099F91FB1AB6A23F08003AB6213201C4B78
:105480009B6ADD070AD51F4B0122029300231749AF
:105490001846CDE9003312F085F91420144B9B6AAD
:1054A0009C060AD5184B0122029300230F49184687
:1054B000CDE9003312F076F915200D4B9A6AD1062A
:1054C00058BF9A6A9A6A920642BF5A6A22F40052F8
:1054D0005A629A6A42F0FF029A620023337005B062
:1054E000F0BD102098E700BFD80A02003CF301008D
:1054F00000ED00E0EE0A0200210B0200340B020076
:105500004C0B0200620B0200810B0200F0B500247C
:10551000434B85B00293074623460E4601222046A0
:10552000CDE900443F4912F03DF93F4B9B6ADB0453
:1055300065D53E4B2046CDE901430122234639493A
:10554000009412F02FF91720374B9B6A1D050AD5DE
:10555000374B01220293002332491846CDE900332C
:1055600012F020F91820304DAB6A9C051FD500249D
:10557000304B012220460293CDE9004423462949BD
:1055800012F010F9AB6BAA6A10040FD503932A4BE3
:105590000122CDE90143204623462249009412F01E
:1055A00001F91FB1AB6A23F40043AB6219201E4B13
:1055B0009B6A59050AD5214B012202930023194900
:1055C0001846CDE9003312F0EDF81A20164A936A16
:1055D00013F4807315D01A4B012202930023114952
:1055E0001846CDE9003312F0DDF81B200E4A936A0D
:1055F00043F47F4393620023337005B0F0BD16205F
:10560000A2E7926A9204F1D50E4A1846CDE901321A
:1056100004490122009312F0C5F81C20E6E700BF00
:10562000B00B02003CF3010000ED00E0C60B0200ED
:10563000210B0200D70B0200F00B0200050C020048
:10564000200C0200810B02001FB500243E4B3F4995
:105650000293012223462046CDE9004412F0A2F82D
:105660003B4B9B6A99016DD53A4B2046CDE90143EE
:10567000012223463549009412F094F81E20344B41
:105680009B6ADA010AD5344B0122029300232F4989
:105690001846CDE9003312F085F81F202C4B9B6A89
:1056A000DB020AD52D4B012202930023274918461D
:1056B000CDE9003312F076F80220254B9B6A1C03DB
:1056C0000AD5274B01220293002320491846CDE931
:1056D000003312F067F821201D4B9B6A59030AD54D
:1056E000204B01220293002318491846CDE90033CC
:1056F00012F058F82220164B9B6A9A030AD51A4BCF
:1057000001220293002311491846CDE9003312F01B
:1057100049F823200E4B9B6ADB030AD5134B012269
:105720000293002309491846CDE9003312F03AF8F4
:105730002420074A936A6FEA03436FEA1343936294
:1057400004B010BD1D209AE7380C02003CF30100A4
:1057500000ED00E0500C0200630C02007D0C020022
:10576000A70C0200C50C0200EA0C0200040D0200A6
:105770002DE9F041714B06465F68A2B00023C7F3E4
:10578000080483F31188BFF36F8F02F07F40B0F1FC
:105790007F4F0CD102F00C00082819D1684A184636
:1057A000CDE9013267490122009311F0FBFF00258A
:1057B0002E464FF00008E31E8DF81F80092B00F2E3
:1057C000A480DFE803F00B989C94A2A2A2A2A2A05E
:1057D000120746BF0E461D460125EAE75A4B012235
:1057E000CDE90183002357491846544FCDF8008076
:1057F00011F0D8FF8DF81F80FC6A14F0020405D068
:10580000524BCDE90183CDF8008006E0FB6A002B06
:105810000BDA4F4B0094CDE90143002301221846D7
:10582000484911F0BFFF002439E0FB6A5B00FAD55C
:10583000484B0122CDE901432046234641490094CB
:1058400011F0B0FF7B69B26943F480737B61BFF3F1
:105850004F8FBFF36F8F7B6932F8022C23F4807374
:105860007B61BFF34F8FBFF36F8F4DF602739A4288
:1058700008D0BB6ADBB263B301200DF11F01FFF753
:10588000ADFD36E0336820460393334B0094CDE9F9
:105890000143012223462B4911F084FF34689DF80F
:1058A0001F309BB96822314608A815F0F4FD0F9B04
:1058B000002D3ED0C3F3080222B96FEA53236FEAEA
:1058C00043230F93204608A9FFF798FB22B0BDE8B9
:1058D000F081BB6A13F47F4F05D001200DF11F0149
:1058E000FFF714FE05E0BB6AB3F5803F9BD3FFF7DB
:1058F000ABFE0446D3E700200DF11F01BFE70020F7
:105900000DF11F01ECE7154B7BE7154A17F4F87F03
:10591000144B18BF1346103CCDE90334124B01223F
:105920000293002307491846CDE9003311F03AFFEE
:1059300079E723F4FF7323F00103C2E700ED00E0F1
:105940005D0D02003CF30100880D02009F0D020076
:10595000C00D0200CE0D0200ED0D0200090E020086
:10596000440D02002F0D02002D0E0200044B5A6957
:1059700042F010025A615A6942F480625A617047DB
:1059800000ED00E0EFF30880EFF3098101B5724606
:10599000FFF7EEFE01BD00BF002320210348C2181F
:1059A0000133452B82F80013F9D1704700E100E084
:1059B000002080F31488BFF36F8F002080F30A88E3
:1059C00080F30B88FCF7CEFE002011490860BFF37E
:1059D0004F8F104880F3088800F044F8202080F3AF
:1059E00011880D484FF0AA014FF4006215F0C4F879
:1059F00009484FF40061401880F30988EFF31480E0
:105A00000221084380F31488BFF36F8FFFF7D4FBA4
:105A100094ED00E000E70020C0D30020BFF34F8FDB
:105A20000549064BCA6802F4E0621343CB60BFF33A
:105A30004F8F00BFFDE700BF00ED00E00400FA0556
:105A4000002318460649D1F89020C2F3072293425A
:105A500000DB7047C1F89830C1F8A0000133F6E7C9
:105A600000ED00E010B572B6002484F31388FFF750
:105A7000E7FF23464FF0FF300C4A03F120010133CA
:105A8000102B42F82100F8D100234FF0FF30074AD5
:105A900003F160010133102B42F82100F8D162B606
:105AA000BFF34F8FBFF36F8F10BD00BF00E100E069
:105AB000084B9B6883420BD1EFF3058343B1064B40
:105AC0005A6842F080525A605A6A22F400425A627E
:105AD0000AF03ABC1869002000ED00E01FB5094C3F
