:020000040100F9
:10000000E85D0021C56C0001FD1B0101996C000138
:10001000996C0001996C0001996C000100000000CE
:100020000000000000000000000000008D690001D9
:10003000996C00010000000035690001996C000115
:100040000D6A00010D6A00010D6A00010D6A0001D0
:100050000D6A00010D6A00010D6A00010D6A0001C0
:10006000892001010D6A00010D6A00010D6A00017D
:100070003F2001010D6A00010D6A00010D6A0001B7
:100080000D6A0001732001010D6A00010D6A000173
:100090000D6A00010D6A00010D6A00010D6A000180
:1000A0000D6A00010D6A00010D6A00010D6A000170
:0800B0000D6A00010D6A000158
:1000B8007BB972B90029BEBF00204FF0004106E0AD
:1000C80008BF00281CBF6FF000414FF0FF3000F060
:1000D80057B8ADF1080C6DE904CE002909DB002BF7
:1000E8001ADB05F047F8DDF804E0DDE9022304B087
:1000F8007047404261EB4101002B1BDB05F03AF8E9
:10010800DDF804E0DDE9022304B0404261EB41017F
:10011800524263EB43037047524263EB430305F0DB
:1001280029F8DDF804E0DDE9022304B0404261EB80
:1001380041017047524263EB430305F01BF8DDF8B9
:1001480004E0DDE9022304B0524263EB4303704745
:1001580053B94AB9002908BF00281CBF4FF0FF3126
:100168004FF0FF3000F00CB8ADF1080C6DE904CE8B
:1001780005F000F8DDF804E0DDE9022304B070477B
:10018800704700BF042810B511D883B104280CBFEC
:1001980010242824A1420AD2064C54F8200018B191
:1001A80041568A42A8BF0A4600201A7010BD6FF057
:1001B8001500FBE7A00400210228034610DC10F11B
:1001C800270F0FDB2830084A40B2105C024492F92E
:1001D8002C209A4207D0002918BF0130C0B27047BE
:1001E8000F2070470020704794460101022808B587
:1001F80006DCFFF7E1FF034B034493F92C0008BD2D
:100208000320FCE794460101014B1879704700BFB1
:10021800BC040021044B1A79824283BF1B68302238
:1002280002FB003000207047BC04002110B51C4CB4
:1002380094F8413003EB4302224492F82810202915
:1002480029D0DBB201EB431304EB430393F84900D5
:1002580082F828004FF0FF0C04EB4110002284F8CC
:1002680031C090F8E00084F84210022184F8302070
:1002780084F8222083F8481030B1D4F8C8344BB140
:100288000020BDE81040184703F00EFED4F8C8342B
:10029800002BF5D110BD40F21D31702003F0EAF9B2
:1002A800C80400212DE9F04F594F984601EB41034E
:1002B8004FF0200C83B03B4493F8284082F800C0EC
:1002C800644500F0A18043468B46904605461A4691
:1002D80007EB441E4FEA441ADEF8D060DEF8D83047
:1002E800DEF8D4109B19D5E9009041F10001994539
:1002F80070EB010374D3EB89002B64D0BEF8DE30B9
:10030800002B60D1019202F0ABFE40F25633019A05
:1003180098426ED040F2F553984266D0B0F5C67F49
:1003280014BF01230E23A9EB06069E424BDA13469F
:1003380042465646984692F800C0594640F2563909
:10034800C34688F800C007EB060CD5F800A0D5E92D
:100358000123DCF8D08013EB0A03DCF8D40042F167
:100368000002984570EB02031BD3BCF8DE30019104
:100378009BB1EB898BB902F073FE4845019936D0E1
:1003880040F2F55398422ED0B0F5C67F14BF012332
:100398000E23A8EB0A08984503DB012003B0BDE84B
:1003A800F08F3E448BF800402B7C96F8E0209A4270
:1003B80026D904EB411407EB440494F84940202C57
:1003C800EBD06601BFE704EB4B1388F80040A44666
:1003D80007EB430393F84930202B0CD01C4677E7F2
:1003E80090465646A9E73323D3E733239BE71D23DB
:1003F800CFE71D2397E70120147003B0BDE8F08F05
:10040800002003B0BDE8F08F012088F80040C5E760
:10041800C80400212DE9F84F3C4E96F841B00BEB8B
:100428004B03334493F82940202C56D05FFA8BF5C0
:10043800DFF8DC804FEA4B0BDFF8D89004EB45136C
:100448006F0106EB430393F84830013B052B57D85F
:10045800DFE803F0035656494C034FF0070AB8F19A
:10046800000F01D0AFF30080EFF3108272B65D4445
:100478003B19354406EB430395F82A1093F84930A5
:10048800A14285F829302AD02AB9B9F1000F01D044
:10049800AFF3008062B63B1906EB430393F848209C
:1004A8003AB3062A25D0032A23D0052A21D00122CF
:1004B80083F8482006EB44145146D4E93230984773
:1004C80096F841B00BEB4B035FFA8BF533444FEAD8
:1004D8004B0B93F82940202CB0D1BDE8F88F20238E
:1004E80085F82A30D0E74FF0020AB8E74FF0030A40
:1004F800B5E72744012306EB470787F84830D9E7D3
:100508004FF40A61702003F0B5F800BFC804002159
:1005180000000000000000002DE9F04F0C461546D1
:1005280085B01E469DF8387001F0E4FE2268451932
:10053800636846F10006954276EB030355D3DFF86E
:10054800C48040F2563905E05D4576EB0A034CD38A
:10055800C4E900BA0DF10F030DF10E023946204629
:10056800FFF7A0FE002841D19DF80F3008EB431398
:10057800D3E93420D3F8D810B3F8DE3011EB020BEE
:1005880040F1000A002BDFD1E389002BDCD0019178
:1005980002F066FD484501992DD040F2F553984286
:1005A80027D0B0F5C67F14BF01230E238B42CBDDC5
:1005B80002F056FD484522D040F2F55398421CD02F
:1005C800B0F5C67F14BF01220E229DF80F3008EB4C
:1005D8004313D3F8D010D3F8D43012EB010B43F106
:1005E800000A5D4576EB0A03B2D2002005B0BDE8EB
:1005F800F08F3323DAE71D23D8E73322E5E71D22FE
:10060800E3E700BFC80400212DE9F04FB2F808C0A5
:100618001C465789002389B015461278064623617F
:10062800E36027820F469DF84880A3606361A4F8C1
:100638000EC0A274C4E90033EAB901F0BBFD5C4BFB
:10064800D5E9042CC31841F1000E9A427CEB0E0345
:1006580006D22F3041F1000182427CEB01035ED2C9
:10066800013E4FF47A7347F1FF372660C4E90173FE
:1006780009B0BDE8F08F4F4804F10C0205A9A0EBC2
:100688000C0001F0CFFDB4F80EB00DF1130206A96D
:10069800584601F0C7FD02F04DFB01F02BFE464A1B
:1006A800034692F84210202928D09368D2E9031211
:1006B800073341F1000A13EB02094AF1000A6B689B
:1006C800227B981CEB7A002BE389134403440CBF6C
:1006D8007A206020C4E9009A184401F00BFECDF896
:1006E80000803246A0603B4628692146FFF714FF88
:1006F80008B9C4E9006709B0BDE8F08F16F10B0925
:1007080047F1000ABBF1000F2ED106988342D6D9D3
:100718001B1A13EB090399464AF1000ACFE7013A7D
:10072800288904F10C034CF1FF31101A009305AA33
:1007380061F1000106AB01F0A1FD059B6868E97A4B
:1007480002332A890344002913440CBF7A2060200D
:10075800184401F0CFFDDDE90632C01A20F07F40D1
:10076800C4E90032A060C6E7039002F0AFFE039B25
:100778000028CAD102F074FC40F25632039B904222
:100788000BD040F2F55290420CD0B0F5C67FBCD1E8
:1007980016F1180947F1000AB7E716F1270947F1DA
:1007A800000AB2E716F13D0947F1000AADE700BFBC
:1007B8000040420FFF7F841EC80400212DE9F04F3E
:1007C8001D46A1B0BC4C0E9204EB451706906D0176
:1007D8000D9101F0D5FF0191064602F0ABFAD4F86D
:1007E800CC3401220835D0371A6004F1C8020B90C6
:1007F800804653190DF1600C555993F80C90B3F8D5
:100808000EB0CDF84090D3E901A309930FCFACE81F
:100818000F0097E803008CE8030025F07F4001F003
:10082800BBFC0BF10103A54A4B449042034400F280
:10083800DF82934200F36181002BC0F22F810C9379
:1008480094F82030049394F821300F9302F03EFE80
:100858000890BBF1000F40F0D980CDF808B002F045
:10086800FFFB40F25633984200F0E48040F2F55323
:10087800984200F04E81B0F5C67F00F041814FF0FC
:1008880000090327CDF81C900397CDF82890D84588
:1008980000F2DB80029B0020002B40F0F480049BD8
:1008A800002B00F05E814FF00209052749460397A7
:1008B800019BB3F1FF3F08BFB6F1FF3F00F0EC80AA
:1008C8001A46AE4272EB0A0380F02C81AB1B6AEB2E
:1008D8000202B3F5000F72F1000280F08E82002B45
:1008E800324640F3D980029B002B40F03F814F46AF
:1008F8000391B5EB00086AF1000118F1FF39A9EB83
:10090800020341F1FF3CBB42CDF814C0C0F2DE80C7
:1009180020B1099B45468A4603440993089B8BB935
:10092800D4E90E32B2F1FF3F08BFB3F1FF3F09D05F
:10093800B8EB030361EB020207998B4272F10003E3
:10094800C0F0B080069B0D9AB9EB0307059B63EBDB
:10095800020802F085FB40F25633984200F03781D6
:1009680040F2F553984200F02081B0F5C67F14BFDD
:100978000B2318239F4278F1000380F01C810E9B03
:10098800012B00F00481029B03F00107019B334017
:10099800B3F1FF3F08BF47F00107002F00F01981AE
:1009A80000274846059901F027FD059BB3F1FF3F55
:1009B80008BFB9F1FF3F00F02A8229F07F402B1AC7
:1009C80023F07F43013BB3F5000F6FD2099B5B19FE
:1009D8001B1A23F07F43B3F5000F67D801F0DCFB47
:1009E8000C9A374BA2EB00089845C0F00881801A92
:1009F8009842C0F0C381314B984500F2FC80984280
:100A080040F223822F4E361AB046F9E0D4E90E326E
:100A18001A400346B2F1FF3F18BF43F0010383F0C9
:100A28000103DBB2029302F01BFB40F256339842FB
:100A38007FF41CAF4FF01C091F27D845CDF81C9038
:100A48000397CDF828907FF625AF0C9A08F1010896
:100A58001A4BA2EB08089A4200F2CA81984500F3A3
:100A6800B380B8F1000FC0F29D8040460DF15302EB
:100A780015A901F0D7FB1598029B281A20F07F4092
:100A8800002B3FF40CAF019B4946B3F1FF3F08BF71
:100A9800B6F1FF3F7FF414AF069A2AE70A4A1344D7
:100AA8000C93CDE6BBF1000F3FF44CAF0026304667
:100AB80021B0BDE8F08F00BFC8040021FF7F841E6D
:100AC8000040420F00807BE10080841E00283FD058
:100AD8000F9898B3029B002B53D015F1FF39A84605
:100AE8005146A9EB02034AF1FF32059200220B920C
:100AF8009F42DBDC0023049310E7BA4A13449EE6C6
:100B08004FF00D091027CDF81C900397CDF82890C9
:100B1800BDE64FF032093527CDF81C900397CDF884
:100B28002890B4E61346721B63EB0A03B2F5000F74
:100B380073F1000380F06681AB1BD0E6CDE911317B
:100B4800139202F007F9DDE91131002800F0C380A3
:100B5800029A002AAAD1049A002AA7D0039A971EBB
:100B6800C6E70327194699460397A1E694F840304B
:100B7800002B3FF4BCAE049B03B102231F46039332
:100B8800B7E6049B002BA8D0039B9F1EA5E7019BFB
:100B9800B3F1FF3F08BFB6F1FF3F00F04781B14610
:100BA80000270AE79048404460E73D239F4278F1D8
:100BB8000003FFF4E4AEBBF100074846059918BFEF
:100BC800012701F019FCF0E6864840444EE7272348
:100BD800D0E6B6EB09020599019B63EB0103052AF0
:100BE80073F1000180F2E680012A73F10003BFF679
:100BF8005DAFB146E1E608F1F45808F5902846469D
:100C080094F822303BB90B9B5B4538BF5B461E33DB
:100C1800B34280F2BA800E9B012B05D0022001F06E
:100C280073FE012001F070FE0B9B9B4555D300F22B
:100C3800B1805BEA030040F0F480414601F0DAFD40
:100C4800002840D094F84030002B60D1D4E90E231E
:100C5800B3F1FF3F08BFB2F1FF3F40F0B080002F73
:100C680079D1A6EB0B011939002940F3E98003205B
:100C780001F0C0FD0646002800F0CE80049BD4F8A1
:100C8800CC248DF878300F9B189516AD8DF87930F7
:100C9800099BCDF864A01A93109BADF86EB08DF83F
:100CA8006C300023514C13608DF87A3016934FF056
:100CB800FF3317930FCD0FC40FCD0FC495E8030072
:100CC80084E80300F3E60220002601F01DFE01205F
:100CD80001F01AFEEBE6139AFCE6A8EB03010220EA
:100CE80001F088FDBBF1000F06D00028EBD0A8EB7F
:100CF8000B01012001F07EFD0028E4D041460020D0
:100D080001F078FD0028DED0BBF1000F9AD097B92A
:100D1800D4E90E23B3F1FF3F08BFB2F1FF3F59D02A
:100D280094F84030002B9CD0052001F0EDFD002305
:100D380084F8403095E7D4E90E23B3F1FF3F08BFAC
:100D4800B2F1FF3F07D002F001FA4FF0FF324FF047
:100D5800FF33C4E90E230A9B0520A9EB030121F008
:100D68007F4101F047FD002865D094F84030002B02
:100D78007FF477AF012384F8403072E7464294F855
:100D88002230B046002B7FF446AF40F61721702082
:100D980002F070FCA8EB0B01012001F02BFD0B9B6E
:100DA800002BA9D000288ED0A8EB0301022001F067
:100DB80021FDA1E74846059901F01EFBF5E502F083
:100DC800C5F94FF0FF324FF0FF33C4E90E23002F6F
:100DD800A6D0C0E702F04AF901F0E6FCC4E90E012A
:100DE8009EE700BF00807BE10080841EC8040021CC
:100DF80040F27F51702002F03DFC40F695117020C2
:100E080002F038FC40F69911702002F033FC40F6ED
:100E18000321702002F02EFC40F64821702002F0D9
:100E280029FC40F63A11702002F024FC40F6D70164
:100E3800702002F01FFC40F2E621702002F01AFC3C
:100E48004FF42461702002F015FC40F6D721702081
:100E580002F010FC2DE9F0413B4D00EB4003064643
:100E68004FEA400895F822202B44002A93F828409E
:100E780014BF0027022701F091FC4FF0200C4FEA25
:100E8800461E05E091F84930A446202B1C4655D053
:100E980005EB44130EEB0401D3F8D02005EB410118
:100EA800D3F8D8309B18121A1B1A22F07F4223F06D
:100EB8007F43B3F5000FE5D8974298BFB2F5000F0E
:100EC800E0D8BCF1200F02D12046BDE8F08108EB44
:100ED80006030CEB4612710104272B4405EB420272
:100EE80093F828E092F84920744683F828200B19D3
:100EF8002246204605EB4303944593F8494083F87E
:100F08004870F4D108EB06032B4493F82AC0BCF1CF
:100F1800200F5FFA8CF713D00F4405EB470787F8CB
:100F280049E00A444644202305EB4202354482F84E
:100F3800493085F82A002046BDE8F0811C46C0E704
:100F480083F829E0EDE700BFC80400212DE9F0414E
:100F580001EB4103494D0C4680462B444F0093F862
:100F68002860202E39D1464B0BB1AFF3008001F039
:100F78001BFC95F84330202B09D010F1020ED5E95F
:100F8800022341F1000C724573EB0C032AD3202E87
:100F980009D042463346FFF711FCC8B3022085F852
:100FA8004360BDE8F081D5E90E23B3F1FF3F08BFE8
:100FB800B2F1FF3F19D195F8403013BB042001F07E
:100FC800A3FC01F029FD2021D5F8CC34002285F8B6
:100FD800431001201A60BDE8F0810846FFF73AFF88
:100FE8008642C0D00020BDE8F08102F0AFF84FF093
:100FF800FF334FF0FF32C5E90E2395F84030002B40
:10100800DCD0052001F080FC002385F84030D5E7CE
:101018003B1906EB4412610104202B4405EB420204
:1010280093F828C092F8492083F82820624613468E
:101038008A189E4205EB420282F8480092F849203D
:10104800F5D13A192A4492F82A60202EF0B211D02C
:10105800084405EB400080F849C03C44194400208E
:1010680005EB4101254485F82A30202381F84930D1
:10107800BDE8F08182F829C0EFE700BFC80400216D
:1010880000000000F8B500221F4C202042F2200387
:1010980000264FF0FF3784F82A0084F8222084F8CD
:1010A800412084F82E20238584F84200C4E9006793
:1010B8004FF0FF364FF0FF37134604F1480184F82C
:1010C8002F20228484F8430084F84020C4E90E6766
:1010D80001F813200133202BFAD101F023FE01255A
:1010E800FF230A4884F8305084F8D03402F040FBDB
:1010F80084F8D10402F09CFBC4F8CC0401F014F984
:1011080084F84450F8BD00BFC80400211D04000144
:101118002DE9F04FC74C85B001F046FB0E46009014
:1011280001F07AFC6368013302D04FF0FF3363604B
:1011380094F82230002B00F01D81637E23B194F8CF
:101148002F30002B40F01081009BD81C46F1000185
:1011580001F052F994F83030002B40F09D810122C3
:1011680084F8302094F84220202A00F09A8194F8DC
:1011780042B0202284F82E305FFA8BFB84F842209C
:1011880084F8432084F82F30236001F0D9FD94F8C7
:10119800418084F8200008EB48035FFA88F923446B
:1011A8004FEA480893F82850202D07D004EB451340
:1011B8006F0193F8E220012A00F0118108EB09077A
:1011C800202DDFF874A24FEA4916274408D0484674
:1011D800FFF740FEA84203D097F82850202DF6D1FB
:1011E800BAF1000F01D0AFF3008001F0DDFA94F8F6
:1011F8004330202B09D010F1020ED4E9022341F12B
:10120800000C724573EB0C03E6D3202D38D02B4627
:101218000122FFF7D3FA002877D006EB0B03022749
:1012280084F8435004EB430393F84820022A50D033
:10123800C844FF22A04484F8312098F82930202B94
:1012480003D094F8D10402F0AFFA94F82030002BC0
:1012580040F0B780022F0BD1009BA068C01A00F0A5
:101268009BFFD4F8C83443B105B0BDE8F04F184728
:10127800D4F8C834002B40F0A98005B0BDE8F08F41
:10128800D4E90E23B3F1FF3F08BFB2F1FF3F07D007
:1012980001F05CFF4FF0FF324FF0FF33C4E90E233B
:1012A80094F84030002B58D10420012701F02CFB82
:1012B80001F0B2FB2022D4F8CC3484F84320002279
:1012C8001A6006EB0B0304EB430393F84820022A49
:1012D800AED108EB09020621224483F8481092F89F
:1012E8002A102029CBB277D0334404EB430383F888
:1012F80049B008EB09035E44234404EB460683F82F
:101308002AB0202386F8493092E7731997F8280005
:10131800042104EB4303024693F8493087F8283048
:101328001346B218AB4204EB420282F8481092F816
:101338004920F5D197F82A102029CAB217D032448B
:1013480004EB420282F8490087F82A30334420220D
:1013580004EB430383F849203EE7052001F0D4FA63
:10136800002384F840309FE701F06EF9F2E687F831
:101378002900E9E74FF40C71206901F05DFEA268CD
:10138800236900999B18E26842F100021B1842F198
:101398000002994276EB0203FFF4CFAE94F8423094
:1013A800082194F8422004EB421204EB4314D2F8CB
:1013B800CC00D4F8C83098474FF46D71702002F013
:1013C80059F901F09BFC0023238443E74FF0FF30D9
:1013D80005B0BDE8F04F184782F829B089E7B3F89F
:1013E800DEA00DF10B0203A9504600F01BFF01F02F
:1013F800A1FC00F07FFF94F84230202B1ED0A36898
:101408002269DD1DE36843F10003AD1843F10003D1
:101418002744D7F8D01007F1D0004268A9429A4172
:1014280024BFC7F8D050436008EB0903234493F85E
:101438002850C3E6C804002100000000009B13F1F7
:101448000B0546F10003BAF1000FE1D0019302F059
:101458003DF8019B0028DBD101F002FE40F2563135
:1014680088420DD040F2F55188420FD0B0F5C67FC2
:10147800019BCDD1009B13F1180546F10003C7E786
:10148800009B13F1270546F10003C1E7009B13F108
:101498003D0546F10003BBE740F2CD31702002F074
:1014A800E9F84FF47471702002F0E4F838B50C468E
:1014B800054601F009FF114991F8413001F1480C46
:1014C8005FFA83FE0CEB831C002302E00133202B20
:1014D80012D01CF81320D8B2002AF7D103EB4E1E05
:1014E800012201EB431301EB4E01C3F8C850C3F8C6
:1014F800CC4081F8482038BD184638BDC8040021C2
:10150800A14A53682DE9F04FC3F3080391B0029044
:101518000491002B40F0128208230393049B1B784C
:10152800012B00F2CB82994C994D25B1002140F254
:10153800FC60AFF30080029B00274FF0010804EB2A
:101548004313D033069325B1002140F20770AFF35F
:101558000080B8F1000F04D18E4B0BB1AFF30080BF
:1015680062B694F84160F6B24FF0000B039B84F822
:1015780031B0002B40F07A81B14625B1002140F20C
:101588001B70AFF3008001F00FF90AAB049A0096C4
:101598000590FFF739F825B1002140F22270AFF32A
:1015A8000080029B4FEA491803EB491A04EB4A0AE8
:1015B8009AF84830013B012B00F2E380059B0A981A
:1015C80023F07F42744F0C9B811A0F4021F07F411A
:1015D800003F18BF0127B1F5000F88BF00271B186F
:1015E8009B1A23F07F43B3F5000F8CBF002707F049
:1015F8000107002F40F0D48009EB490304224FEA89
:10160800490023448AF8482093F82A102029CAB2AE
:1016180000F0D4814244029B04EB420282F8493034
:10162800484498444FF0010B204404EB480880F8E4
:101638002A30202388F8493025B1002140F227704C
:10164800AFF30080554B0BB1AFF30080EFF3108A76
:10165800D04672B625B1002140F22D70AFF300805C
:1016680094F83190B9F1000F7FF46DAF25B1494678
:1016780040F23570AFF300800DF1280EDDF818C088
:10168800BEE80F00ACE80F009EE803008CE80300FA
:10169800BBF1000F00F0EC8125B1002140F242704F
:1016A800AFF30080039B002B00F0EB81C7B194F8E7
:1016B8004230202B14D125B1002140F24770AFF3FE
:1016C800008031460220FFF741FC002840F0E98104
:1016D800049B1978002900F09D81012900F02581DB
:1016E80025B1002140F26470AFF3008094F84130D6
:1016F800DB4303F0010384F84130FF2384F83130E1
:1017080025B1002140F27570AFF30080B9F1020FE6
:1017180000F04881B9F1010F05D1D4F8C83413B1EC
:101728004FF0FF309847BAF1000F04D1194B0BB1B5
:10173800AFF3008062B625B100214FF4F160AFF33A
:101748000080BBF1000F12D094F8413003EB430343
:10175800234493F82930202B09D025B1002140F2E9
:101768008F70AFF3008094F8D10402F01DF825B112
:10177800002140F29470AFF30080584611B0BDE8E4
:10178800F08F4FF0000B57E700ED00E0C804002190
:101798000000000000000000FEFFFF000000000045
:1017A8000DF127030DF1260231460AA8FEF77AFD4E
:1017B8008346002800F099809DF826709DF827C080
:1017C800674500F0D780BCF1200F00F07C8108EB62
:1017D8000C03202F04EB430393F8492000F0028107
:1017E80008EB07034FEA490004EB430393F8491059
:1017F80083F8492007914FF0050A08EB01030A46D0
:101808008E4604EB4303944593F8491083F848A0A7
:10181800F3D100EB0903234493F82AA0BAF1200F6F
:101828005FFA8AFC00F0F180C444079B04EB4C0C7F
:101838008CF8493000EB09034FF0200C4244234454
:10184800674504EB420283F82AE0029B82F849C00C
:10185800434404EB430383F8491040F0958048441F
:10186800029B5F46204480F8283094E09B4B06F1A9
:10187800010A03EB861E0AF0010A03EB8A1CD14613
:10188800BEE80F00ACE80F00BEE80F00ACE80F00A0
:10189800BEE80F00ACE80F009EE80F008CE80F00D0
:1018A80025B1594640F23C50AFF3008006EB46069E
:1018B8000AEB4A0328362833A15BA2199278E15231
:1018C80023449A7055B100214FF4A860AFF300800B
:1018D80025B1002140F21170AFF3008094F8313047
:1018E800002B7FF430AE564647E609EB4903042245
:1018F8004FEA490023448AF8482093F82A102029FF
:10190800CAB260D04244029B04EB420282F84930DA
:1019180048449844BB460027204404EB480880F814
:101928002A30202388F8493086E6002D3FF411AE8E
:10193800014640F25A70AFF3008004E6103B59B2FA
:1019480000295ADB664B5B5C5B090393002B7FF431
:10195800E5AD644C94F84230202B00F0B980049B2C
:101968001B780393002B3FF4DFAD40F2F561702044
:1019780001F080FE202F2BD008EB070304EB430374
:1019880093F849308AF849304744029B04EB4707EB
:1019980087F8493000279844032304EB480888F85F
:1019A800483049E6059BA068C01A00F0F5FBD4F85A
:1019B800C834002B3FF4B7AE9847B4E6029A83F8D0
:1019C800292013462CE6029A83F8292013469FE71C
:1019D80009EB49034FEA4900234493F828308AF871
:1019E80049303CE709EB49034FEA4900234493F89F
:1019F800281083F828200791FDE603F00F03043B25
:101A080013441B7E5B090393A0E7DDF81CC083F831
:101A180029C00FE71DB140F24F70AFF3008094F872
:101A280041300421DDF808E003EB43000EEB4312DC
:101A380020445FFA83FC04EB420290F82A6082F8A3
:101A480048105A01202E4FEA4303F1B232D0114414
:101A580004EB410181F849E0714663440A44BB46FE
:101A6800234404EB420283F82A10202382F84930E9
:101A7800002D3FF458AE002140F27570AFF300809E
:101A880051E69DB1194640F264701E46AFF30080DE
:101A9800FF23314640F2757084F83130AFF300808F
:101AA80041E68146002D7FF41CAE1FE6FF2384F833
:101AB800313038E6714680F829E0CEE740F2F96126
:101AC800702001F0D7FD40F28621702001F0D2FD90
:101AD80040F2F261702001F0CDFD00BF1005002139
:101AE80000E400E0C8040021014B93F8D0047047DB
:101AF800C804002110B5072800F2A880DFE800F02C
:101B08001A4D6878A67E8E04784C94F84230202BC3
:101B180000F0CB8094F84220052194F8423004EB81
:101B2800431304EB4214D3F8CC00D4F8C830BDE812
:101B3800104018476D4CD4E90E23B3F1FF3F08BF9E
:101B4800B2F1FF3F00F0AA80E38A002B40F08380C7
:101B580094F84230202B00F09280FF23616884F8CB
:101B68002F304B1C05D0052000F044FE002800F063
:101B7800B880637E012B00F0858094F84230012103
:101B880094F8422004EB421204EB4314D2F8CC0040
:101B9800D4F8C830BDE810401847544C94F8423087
:101BA800202B69D0012384F82E3001F08FFC002807
:101BB80000F08880D4E90E23B3F1FF3F08BFB2F1EB
:101BC800FF3F52D094F84230002194F84220D9E7E0
:101BD800464C01F093F8E38A1BB101F077FC00282A
:101BE80075D001F0B7F810B1012384F8213010BD89
:101BF8003E4B0122D3F8CC341A6010BD3B4C94F80C
:101C0800403093B1D4E90E23B3F1FF3F08BFB2F1DE
:101C1800FF3F50D0002384F8403010BD334BBDE85F
:101C2800104093F8D00401F0BFBD94F84230202B47
:101C38003ED04FF0FF3294F82F306260002B4BD02B
:101C480094F84230062194F842209BE740F673014D
:101C5800702001F00FFD01F039FC00287FF478AF07
:101C680040F62C01702001F005FD01F0FFF900F0AD
:101C78009BFDC4E90E01A5E7FEF7D8FA92E7FEF747
:101C8800D5FA6AE7D4E902312069013B41F1FF3115
:101C9800181841F1000100F06DFC6EE701F0E6F95B
:101CA80000F082FDC4E90E014EE7FEF7BFFA31E706
:101CB800FEF7BCFABDE701F0D9F900F075FDC4E9FB
:101CC8000E01A7E740F65601702001F0D3FC4FF44F
:101CD8000661702001F0CEFC40F64801702001F04A
:101CE800C9FC40F63101702001F0C4FCC804002191
:101CF8000C4B93F84220202A0DD093F8420004217F
:101D080093F8422003EB421203EB4013D2F8CC00C5
:101D1800D3F8C830184740F67F01702010B501F09D
:101D2800A9FC00BFC804002170B53A4C82B094F8F1
:101D38004230202B68D06368013356D194F8425062
:101D4800064604EB4515D5F8D00020F07F4000F09A
:101D580023FAB5F8DE2095F8DC10531C2E4A0B4404
:101D68009042034429D893422CDC002B1FDB3344D8
:101D78002A4A964243DC2A4A96423BDD264A934247
:101D880023DC002B2EDB18460DF1030201A900F01D
:101D980049FA9DF80320019994F82F300F2A88BF3B
:101DA800013121F07F41616093B902B070BD1D4AD5
:101DB8001A44194993198A42DAD940F27F5170209E
:101DC80001F058FC184A1A44F3E717481844DBE7AF
:101DD800052000F00FFD0028E7D140F6BD21702056
:101DE80001F048FC0F481844CEE740F6B6217020B1
:101DF80001F040FC40F28151702001F03BFC4FF4AF
:101E0800B061702001F036FC40F6B521702001F079
:101E180031FC00BFC8040021FF7F841E0040420F30
:101E2800FFBFBDF00080841E00807BE110B50A4C26
:101E380094F8443063B194F8D034FF2B01D00020DB
:101E480010BD01F095FC0346002084F8D03410BD85
:101E58006FF0220010BD00BFC804002138B50E4B3A
:101E680004460BB1AFF30080EFF3108572B606207D
:101E7800214600F0BFFC044625B9084B0BB1AFF36F
:101E8800008062B604B138BD054B93F8D004BDE8B4
:101E9800384001F089BC00BF0000000000000000CD
:101EA800C804002100F07ABC254A10B592F84230E7
:101EB800202B3FD092F8423092F84110DCB292F8D1
:101EC80041E001EB41015FFA8EFE114491F82830A0
:101ED800202B22D04FEA4E1E06E0734402EB430348
:101EE80093F84930202B18D002EB431191F8E0C049
:101EF8008445F2D802EB4413D3F8D040D3F8D80085
:101F0800D3F8D4300019D1E9344143F100038442B5
:101F180071EB030304D2002010BD4FF0FF3010BD59
:101F2800201A146800F038F904F174038342F2D8D7
:101F3800001B10BD40F60831702001F09BFB00BF6C
:101F4800C80400212DE9F04F914C87B094F8423035
:101F5800202B00F0188194F84250814694F84130C3
:101F68000DF1130220688B4603EB430305A948448F
:101F7800EDB2234493F82870A3680393236902936E
:101F880000F050F9A9F17402824B9A4262D804EB2E
:101F98004511059BD1F8D020D1F8D8009B18D4E979
:101FA80002561818401B20F07F43B3F5000F51D894
:101FB80094F84120202F20615FFA82FA84F818B043
:101FC80000F0D78020218846594604EB471C401969
:101FD8004FEA471B46F10006DCE9342382420192AE
:101FE800B3414FD3BCF8DE300BB1E38AB3B305205D
:101FF800CDF8048000F088FC019994F841004FF076
:10200800FF332029C0B2636040F0B18000EB40008C
:102018002027204490F8282094F8411094F8423062
:1020280003EB411304EB430383F8492023684B4433
:102038002360637EFF22012B84F8312000F0888022
:10204800202F40D094F8D10401F0AEFB002007B057
:10205800BDE8F08F012007B0BDE8F08F01F000F86F
:1020680040F25633019A984221D040F2F5539842F3
:102078001BD0B0F5C67F14BF01230E23521B934219
:10208800B5DD217EA3449BF8E0308B4211D907EBE4
:102098004A1304EB430393F84930202B17D0B84672
:1020A800A5681F46D4E903608FE73323E6E71D23BD
:1020B800E4E7DDE9023202209B18A2689B1A23613B
:1020C80007B0BDE8F08F002007B0BDE8F08F05200D
:1020D80000F01AFC94F841004FF0FF33C0B263607F
:1020E80000EB40034FF0050C07EB401223444FEA86
:1020F800400E04EB420293F82880450192F84920EB
:1021080083F828204246AB181146164604EB4303D1
:102118008F4293F8492083F848C0F4D10EEB0003AE
:10212800234493F82AA0BAF1200F5FFA8AFC1BD047
:10213800AC4404EB4C0C8CF84980294470442023AF
:1021480004EB4101204481F8493080F82A6063E7B4
:10215800D4E902322069013B42F1FF32181842F1FA
:10216800000100F007FA6BE783F82980E5E70F46DE
:10217800B6E7052000F0C8FB4FF0FF3394F84100A4
:102188006360C0B242E740F63531702001F072FA60
:10219800C80400218C3F420F43F60952C0F30803DC
:1021A800400A02FB03F302FB00F003F5807300EB27
:1021B800532070470346C0F30800C3F34E221B0E9A
:1021C80043EA0123090E10B54FEA411C43F60954AE
:1021D8004FEA431E4CEAD36C04FB00F0BEEB030E3F
:1021E80004FB02F200F580706CEB010402EB502056
:1021F8004FEA841C4FEA8E124CEA9E6CB2EB0E0238
:102208006CEB040C4FEACC0C4CEA527CD200D3188D
:1022180041EB0C01DA03C903801841EA534141F14B
:10222800000110BD48F2376C430B0CFB03F300B5FB
:102238004FEA134C43F6095E0F4B0EFB1C0000FBE4
:1022480003F35B0D0EFB03FE03EB4C2343F6085C24
:10225800F444B0EB5C2F08D80EF5807E0B60A0EB41
:102268005E20C0B210705DF804FB013300200B60E3
:1022780010705DF804FB00BF6F0C010030B585B02D
:102288001C461546194A03AB009302AB01F018FB34
:10229800039A48F2376343F6095C510B43F6085E2C
:1022A80003FB01F10B0C12490CFB132000FB01F19D
:1022B800490D0CFB01FC01EB4321E644B0EB5E2F1A
:1022C80011D80CF5807CA0EB5C20C0B2089B18707C
:1022D80002980306000A5B1840F100002360606062
:1022E8002A6005B030BD01310020EFE70080841E70
:1022F8006F0C010048F23761420B43F6095C094B49
:1023080001FB02F2120C0CFB1201500201FB033319
:10231800013B5B0D0CFB03FCB1EB5C2F88BF01306C
:10232800184470476F0C010030B42E4B4FF0FF3447
:102338004FF0FF35002204212B481A701A6199705A
:10234800C3E902454FF48055C0F88050BFF34F8F62
:10235800BFF36F8F01211A754FF40034C0F8805114
:10236800224B4FF0FF355960C3F80853C3F8402596
:10237800C3F84021C3F84425C3F84421C3F84825CD
:10238800C3F84821C3F84C25C3F84C211961C0F89B
:102398008040BFF34F8FBFF36F8F154AC0F880415D
:1023A80051609160D2F80435002BFBD111494FF4EC
:1023B80000340D48C2F80813C2F848134FF482716C
:1023C800C2F84031C2F84431C2F84831C2F8043189
:1023D8000123046013600223C2F84413C2F80433D3
:1023E80030BC7047A009002100E100E000C00041B6
:1023F8000010014102000700F8B5564C2378012B64
:102408002CD0554A0625C2F808558BBB534A4FF4C1
:102418004035C2F84853C2F80853C2F84031C2F8F0
:1024280044314E4A4FF48037002520F07F4CC2F8E3
:102438000873C2F84873C2F84051D2F80465ACEB8F
:10244800060626F07F45B5F5000F02D8444D2E420A
:1024580019D140F2B2316C2001F00CF9D4E90252E2
:102468008A4208BF85426ED03B4A0625C2F8085505
:102478003A4A4FF40035C2F84853C2F808530025C9
:10248800C2F84451CDE7C2F840C5C2F844732BB135
:10249800A668D2F80435F31A2B42FAD00125002297
:1024A800304E4FF48057A561A270C6F88070BFF314
:1024B8004F8FBFF36F8F2C4B4FF0FF3CC6F88071E6
:1024C80022755D60C3F808C3C3F84025C3F84021EE
:1024D800C3F84425C3F84421C3F84825C3F8482164
:1024E800C3F84C25C3F84C211D61D3F8042522F00C
:1024F8000302C3F80425D3F8082522F0030242F0AA
:102508000202C3F80825102292FAA2F2B2FA82F265
:10251800092A19DCC3F81025A060DD60A069E16014
:1025280040F20141C3F80002104A0C48C6F8807115
:102538003760C0F8C021A0F50050C3F880200423FC
:10254800C0F804352180F8BD40F25531084801F043
:1025580087F800BFA009002100F0004100100141E8
:10256800FEFFFF0000E100E000C000410200008023
:10257800FC480101F8B52E4C94F800C0BCF1020FDC
:10258800D4E9025344D08B4208BF85424AD0237D08
:10259800002B42D0274B0626274A4FF48037C3F832
:1025A80008650023C2F8087320F07F4EC2F848730C
:1025B800C2F84031D2F80435AEEB030323F07F466E
:1025C800B6F5000F02D81D4E334204D14FF4747192
:1025D8006C2001F04FF8C2F840E5C2F84473BCF132
:1025E800000F04D0D2F80435EB1A3342FAD0A060B9
:1025F80040F20242124B104D1248E160C5F8C0315A
:102608000C49C0F88C300223C1F804352280F8BD8B
:102618008B4208BF8542BAD1F8BD4FF471716C2066
:1026280001F028F84FF470716C2001F023F800BF16
:10263800A009002100F0004100100141FEFFFF0049
:102648000100008000C00041F8B5464C23787BB9F2
:10265800454A4FF44031C2F84813C2F80813C2F88B
:102668004031C2F8443140F2DB316C2001F002F80D
:102678003D4A4FF400300021022BC2F84803C2F84B
:102688000803C2F84411EED1EFF3108572B6D2F800
:102698000405D2F8043153B1236901332361C2F828
:1026A8000411D2F80405D2F80431002BF4D12269C0
:1026B800002D38D04FF0807503230021E2FB05314F
:1026C8001818D4E9025741F100018F4208BF85422A
:1026D80013D0254B254ED3F804252B46AA1A1640AD
:1026E80066B122F07F42B2F5000F07D8FFF784FEEB
:1026F800A3691F4AC2F80032F8BD03461A491D4AA9
:10270800D1F804051B1A1A4022B123F07F43B3F510
:10271800000F0AD9012200211346A261144AA170B0
:10272800C2F80032F8BD62B6C4E713480222A560B9
:102738000123E7600026C0F80825104D0C4AA36164
:10274800A6705360D360C1F8C0510421C2F880500C
:1027580040F20142C0F804152280054AC2F800324E
:10276800F8BD00BFA009002100100141FCFFFF00D7
:1027780000C00041FEFFFF0000F0004102000080A1
:10278800014BD3E902017047A0090021024B00F573
:10279800A87053F82000704700100141014BD3F88E
:1027A800040570470010014130B4EFF3108572B68C
:1027B8000E4A0F49D2F80405D2F804315BB100245F
:1027C8000B6901330B61C2F80441D2F80405D2F851
:1027D8000431002BF4D10B6905B962B600214FF022
:1027E800807230BCE3FB0201704700BF001001415A
:1027F800A0090021032870B525D83E4BD3E9024231
:10280800B2F1FF3F08BFB4F1FF3F4DD01A78022A5A
:1028180058D0394D82000123103003FA00F602F136
:1028280040002A44C5F808634351D2F84045A1EB5B
:10283800040C2CF07F4CBCF1020F3DD80023184645
:10284800C2F8403570BD031FDDB2022D47D8294BB1
:102858001A7812B15B78834246D04FF48034AA00CC
:10286800264B0020AC4002F5A072C3F80843C3F819
:102878004843D050D3F80405214A081A024020F0F2
:102888007F40B0F5000F8CBF00200120002A08BF50
:1028980000200028D6D005F5A87543F82510C3F800
:1028A8000443C3F8444370BD1A7D002AAED14FF4E7
:1028B80086616C2000F0DEFEC2F840151846C5F8A7
:1028C800046370BD5C780F4A231F032CDBB24FEA08
:1028D80083031A449DD91368002BFCD099E740F272
:1028E80054416C2000F0C6FE4FF48A616C2000F061
:1028F800C1FE00BFA009002100C000410010014135
:10290800FEFFFF0040110141032810B582B014D822
:1029180000F1100482000121384B02F5A07200F585
:10292800A870A1400024C3F8081343F82040D450ED
:10293800D3580093009B02B010BD031FDBB2022BDB
:1029480056D82F4A1178E1B94FF480312D4A03F552
:10295800A87099409B00C2F80813C2F8481352F8AF
:102968002000D2F804452849001B014019B1002075
:1029780003F5A0718850254A9B580193019B02B02A
:1029880010BD54788442DFD1214806240129C0F8BB
:10299800084508D000244FF0FF304FF0FF31147085
:1029A800C2E90201D0E71B484FF48054C0F88040C8
:1029B800BFF34F8FBFF36F8FC0F880414FF0FF34E4
:1029C8000E484160C0F808430024C0F8404514751B
:1029D800C0F84041C0F84445C0F84441C0F84845F3
:1029E800C0F84841C0F84C45C0F84C410161D1E7F6
:1029F80040F2E2416C2000F03DFE00BF00C0004103
:102A0800A009002100100141FEFFFF004011014113
:102A180000F0004100E100E0174B1B780BBB174AA0
:102A28004FF44031C2F84813C2F80813C2F84031D5
:102A3800C2F84431124B00224FF0FF31C3F808139B
:102A4800C3F84025C3F84021C3F84425C3F84421FE
:102A5800C3F84825C3F84821C3F84C25C3F84C21CE
:102A68007047064B4FF400320021C3F84823C3F8DF
:102A78000823C3F84411DDE7A00900210010014133
:102A880000C0004108B53C4BD3F80423D00303D55C
:102A9800D3F84021002A3AD1374BD3F804239103C5
:102AA80003D5D3F84421002A4BD1334BD3F8042360
:102AB800520302D5D3F8482182B92F4BD3F8042109
:102AC80032B12E4A0021C3F804111369013313618E
:102AD8002B4B4FF40032C3F8802108BD002229494E
:102AE800C3F84821D3F84825D3F80435D31A194038
:102AF80021B123F07F43B3F5000FDED91E4B4FF40D
:102B080080220620C3F80823FEF7F4FFD5E7002249
:102B1800C3F84021D3F84025D3F80435D31A23F05D
:102B28007F42B2F5000F03D8164A1A40002AB3D1E3
:102B3800114B4FF480320420C3F80823FEF7DAFF64
:102B4800AAE70022C3F84421D3F84425D3F8043572
:102B5800D31A23F07F42B2F5000F03D8094A1A406E
:102B6800002AA2D1044B4FF400320520C3F80823F1
:102B7800FEF7C0FF99E700BF00100141A00900213E
:102B880000E100E0FEFFFF0030B5594C85B0A378A6
:102B9800042B32D023785BB1012B00F0A180237D78
:102BA800002B00F09F80022360782370FFF7ACFEB3
:102BB800504BD3F80423150302D5D3F84C2112BB8C
:102BC8004C4BD3F80423500303D5D3F84821002AEB
:102BD80034D1484BD3F80423910303D5D3F84421C7
:102BE800002A46D1434BD3F80423D20303D5D3F8A4
:102BF8004021002A58D105B030BD072005B0BDE8F6
:102C08003040FEF777BF00224FF400203A49C3F85E
:102C180008030320C3F84C25C3F84C21D3F84C31E2
:102C280000934FF48053009AC1F88031FEF762FF99
:102C3800304BD3F804235003CBD5C6E700224FF41A
:102C480080202D49C3F808030220C3F84825C3F89B
:102C58004821D3F8483101934FF48053019AC1F8C1
:102C68008031FEF747FF234BD3F804239103B9D5EE
:102C7800B4E700224FF400301F49C3F808030120CD
:102C8800C3F84425C3F84421D3F8443102934FF4E0
:102C98008053029AC1F88031FEF72CFF154BD3F808
:102CA8000423D203A7D5A2E700204FF48031124AAB
:102CB800C3F80813C3F84005C3F84001D3F840111E
:102CC800A06103914FF48051039DC2F88011042242
:102CD800A270C3F8000205B0BDE83040FEF70ABF95
:102CE800237560E740F269516C2000F0C3FC00BF17
:102CF800A009002100C0004100E100E0074B93F962
:102D08000030002B09DB5A09012103F01F03044896
:102D1800403201FA03F340F822307047BC09002121
:102D280000E100E0024B00221A705A80704700BF91
:102D3800C0090021014B5888704700BFC009002115
:102D4800034B1878023801288CBF002001207047F7
:102D5800C0090021034B1878A0F10300B0FA80F0F5
:102D680040097047C0090021BFF35F8F024A1378FA
:102D780003F0FE0313707047C4090021064B1A784C
:102D8800D20707D41A7842F001021A70BFF35F8F96
:102D98000120704700207047C409002108B5FFF7DB
:102DA80081F80A4A034652685069C31A1B02B3F5F0
:102DB800407F03DBBDE80840FFF750B8FFF7D4FFBA
:102DC800FEF792FEBDE8084000F0EEBCC409002101
:102DD80070B40E4D6B6823B96860C36170BCFFF7AF
:102DE800DDBF46691A4600245169711A0902FF318C
:102DF80009DBD169144621B9E369C361E06170BC9C
:102E080070470A46F0E79342F6D1E5E7C409002186
:102E1800074A5368834203D1DB69536070471346FE
:102E280023B1DA699042FAD1C269DA61704700BF0A
:102E3800C40900212DE9F0413A4FFFF733F8014664
:102E48007C68002C6BD0FFF799FF804630B9C81C0E
:102E580020F07F40BDE8F041FFF700B87B68586973
:102E6800411A0902B1F5407F21DA2F4E2046FFF7BB
:102E7800CFFF257C05B36369013D03F58003257405
:102E8800002523F07F436361FFF7A2FF7C6854B1FC
:102E9800FFF708F803466069C31A1B02B3F5407FC1
:102EA80036DBFEF7DBFFBDE8F041FFF75DBFFFF75C
:102EB8005BFF7B685869CDE7A069C8B1B042217A49
:102EC8001DD9B0FBF6F506FB1505002D08BF3546E4
:102ED800284602F0AFFA6369184420F07F40606129
:102EE800A069401BB0FBF6F020742046FFF770FF86
:102EF800FFF73AFF2046E36845469847C6E702F0E1
:102F080099FA63692574184420F07F406061ECE702
:102F1800002DABD0FEF7E8FD00F046FCC3E7BDE8A6
:102F2800F08100BFC40900210020A1070148FEF775
:102F38007DBF00BF3D2E00012DE9F04105468846C2
:102F4800FFF71CFF00286ED04DB3384B5E6816BBE8
:102F580010223146A81800F009FDFEF7A3FFB8F1CA
:102F6800010F074621D018F0FD0F57D12B7A2C6896
:102F7800002B4BD03D2C4CD8B8F1020F4FF03F043A
:102F880000D1AC61297A204602F054FA074427F0B0
:102F98007F476F6133E0B54201D0F669D7E76FF03C
:102FA8001500FFF7E1FEBDE8F0812868DFF88080B2
:102FB8004045F4D8297A02F03DFAC01B0302E6D452
:102FC8003846FFF7E9F82C68844238BF4444241A8D
:102FD800DFF860804445D5D9297AB4FBF8F608FBB8
:102FE8001646002E08BF46463046A61B02F022FAB7
:102FF8000744B6FBF8F627F07F472E746F61284622
:10300800FFF7E6FE0020FFF7AFFECCE75D2C38BFE8
:103018005D24B8F1020FDBD1AC61D9E74FF4B2718E
:103028006E2000F027FB6FF02200BCE7C4090021E6
:10303800E17F841E0020A10708B50B4659B148B1AD
:103048004FF0FF31054A8C46E0FB03C1604600F0B3
:10305800F3FB013008BD0846FCE700BF40420F0003
:10306800014B5888704700BFCC09002110B5EFF319
:10307800108472B6064A93790133DBB2937193795F
:10308800012B01D100F008FA04B962B610BD00BFE7
:10309800CC09002170B50B4C26785EB90125A060DB
:1030A8002570FFF7E3FF00F011FA28B9064B2573E6
:1030B800C3F80453002070BDA368002BFAD09847CA
:1030C800A660F7E7CC0900210050004108B5FFF7DA
:1030D800CDFF00F0FBF9084A084B30B1012111611E
:1030E80004225A7300229A7308BD032159730121DF
:1030F800C2F80413F6E700BF00500041CC090021D4
:1031080038B5114CE37BB3B1A27B013B9A4212DA8A
:1031180000F0DCF9054600F0EDFAE37B012B82BFF5
:10312800A37B0133A37355B12369C31A0133022B5F
:1031380009D935B12061BDE83840FFF7C7BF6369D9
:10314800F3E76061F7E738BDCC09002110B5EFF36C
:10315800108472B60A4B9A7922B940F219116D207F
:1031680000F088FA9A79013AD2B29A719A791AB922
:103178001B7E0BB900F096F904B962B610BD00BF0A
:10318800CC09002108B5054B1A7822B100221A7320
:103198001A70FFF7DBFF002008BD00BFCC09002133
:1031A80070B51B4C637E7BB9E06900F0030000F04A
:1031B800B5F948B1FFF7BAFE30B9EFF3108372B62C
:1031C800627B12B103B962B670BD0122627303B9A2
:1031D80062B600230F4D8026C5F80863C5F81C3178
:1031E80084F82030FFF772FF94F8443002210A4A2D
:1031F8000A48534363620A4B2363FFF79DFE20B1DD
:1032080040F24B216D2000F035FAC5F80463DBE786
:10321800CC0900210050004190D00300F0090021A2
:1032280009310001F8B5264C94F84530002B45D0FB
:10323800244BD3F80071D3F8046157B10122C3F8C5
:103248000823237B2BB10025A36825730BB198476E
:10325800A5601C4D3EB10023C5F804310223C5F812
:103268000833FFF79DFFD5F81C3194F82060F6B2BB
:1032780037B1627B032A01BF0422627301222A61EB
:103288007BB1104B0022C3F81C21637B042B04D0B4
:103298004FF4E4716D2000F0EDF902236373FFF73A
:1032A80055FF5EB1002384F82030637B022B01D1E7
:1032B800FFF70CFFBDE8F840FFF748BFF8BD00BFB7
:1032C800CC0900210050004110B5044CE06900F021
:1032D800030000F023F90028F8D010BDCC09002124
:1032E800F8B5054650B10278022A07D8437842B9A2
:1032F800013B1F2B02D88378212B07D96FF01500CB
:103308006AE0002BFAD18378002BF7D15E4B20229C
:10331800C3F88020BFF34F8FBFF36F8F5B4EC3F8A6
:1033280080214FF0FF335A4CC6F808330023C6F803
:103338000031C6F80431C6F81C31A371AB88A380EC
:1033480000F0D4F810B101232370A371D6F80C341F
:10335800D6F80C24D70303D5DE0701D500F0B0F862
:1033680040F2F553AA78697863800123E27300225A
:10337800E3612B7884F84410012B6376A2732CD078
:10338800022B2DD0002B38D100F0B8F800283ED001
:1033980000F0BCF8E36903F00303984237D1AB7936
:1033A80083BBFFF791FFE37B63B12B7853B900F040
:1033B8008DF8054600F09EF96FF00043002D60D0AF
:1033C800C4E9040301232022002084F845302E4B51
:1033D8006073C3F880211A60F8BD0223E361D3E764
:1033E800FFF744FE294BD3F80C24D3F80C14C80378
:1033F800F9D5D107F7D50323F0E740F23D316D2029
:1034080000F038F9214B0222C3F80423CBE71F4B05
:1034180001220021DA60C3F80411217FC3F81815CE
:103428009A600222C3F80423AA79002ABBD1D3F8F0
:103438000423920702D44FF43E71E0E7154A176956
:10344800116907F0100741F010011161D3F8043138
:103458000BB902F001F80D4ED6F8043173B1FFF73D
:1034680033FF27B90B4A136923F0100313610223B2
:10347800C6F808330023C6F8043194E701F0EBFFDF
:10348800EAE7C4E904309DE700E100E000500041AC
:10349800CC09002100ED00E0014B01221A607047C1
:1034A80000500041044A012353600023C2F8003150
:1034B800024A1370704700BF00500041130A0021F0
:1034C800014B01221A707047130A0021054BD3F8EB
:1034D800003123B9044B187800F00100704701202F
:1034E800FAE700BF00500041130A0021024BD3F84D
:1034F800080400F00100704700500041024BD3F867
:10350800140400F00100704700500041024BD3F84A
:103518001C0400F00300704700500041074B0246AE
:10352800D3F81814D3F8180410F4803005D0D0B2AA
:1035380001F003031B1A58425841704700500041DC
:10354800BFF34F8F0549064BCA6802F4E062134384
:10355800CB60BFF34F8F00BFFDE700BF00ED00E079
:103568000400FA05094B01225A604FF0FF32C3F8F4
:1035780008234FF48032064BC3F88020BFF34F8FE7
:10358800BFF36F8FC3F88021704700BF000001416F
:1035980000E100E010B5134900230122124CC1F8E4
:1035A800FC3FC1F8FC2FDA00013302F1FF7202F58B
:1035B8008032D2F800032040884202BFD2F80003CC
:1035C800D2F804230260202BEDD1084B4FF480720F
:1035D800C3F88020BFF34F8FBFF36F8FC3F88021EC
:1035E80010BD00BF0080004100F0FFFF00E100E0D7
:1035F800F8B5194E05460C46174633784BBB01F013
:1036080007FF164B7760002D08BF1D463472FFF781
:10361800C1FF2846FFF7A6FFFFF762FE0546B0B9CF
:10362800FDF730FDFFF7BCFD01F0F3FE002C0CDBCD
:1036380004F01F0264090123A400934004F16044CC
:1036480004F56144C4F880312360012333702846AF
:10365800F8BD4FF0FF35FAE7140A0021D046010102
:1036680008B572B6024B5B6803B19847FFF768FF6D
:10367800140A00211FB572B6134B5D688DB9FFF7A8
:103688005FFFB4FBF6F4D3B20132002CF9D103F199
:1036980010026A4402F80C4C0A2233B901A8A84760
:1036A800EDE7044600220A26EDE7013BDBB203F111
:1036B80010040DEB0406B0FBF2F402FB14003030EA
:1036C80006F80C0C2046E8E7140A0021074B93F98A
:1036D8000830002B09DB5A09012103F01F0340328F
:1036E80001FA03F3024941F822307047140A002115
:1036F80000E100E01B4B4FF4803270B5C3F8802026
:10370800BFF34F8FBFF36F8F174D0021174CC5F8CC
:103718000011C3F880212669236906F0100643F0DA
:10372800100323610123C5F804332B60D5F8003159
:10373800A3B11EB9236923F0100323610A4B0122A8
:10374800D3F808055A60C3F808230022C3F80021FB
:103758004FF48032034BC3F8802170BD01F07BFE2B
:10376800E4E700BF00E100E00000014100ED00E0F7
:1037780002460C49052038B50138C0B2FF2803D1EC
:1037880048216920FFF776FF01EBC0031D7905F09A
:10379800FF04002DF0D141F8302001225C719C71AA
:1037A8001A7138BD200A0021042808B503D9582108
:1037B8006920FFF75FFF094B03EBC0000379012B7A
:1037C80001D05921F4E7437982790133DBB29A4277
:1037D80018BF4371BDE80840FFF778BF200A0021F1
:1037E80070B50625114C0026013D15F0FF0500D1E6
:1037F80070BD94F8281004EBC1031A79012A09D185
:1038080058799A79904205D05A79D2B29A7154F877
:103818003130984794F828300133DBB2042B94BF39
:1038280084F8283084F82860DEE700BF200A0021E9
:103838000048704700070841914270B53BD2B2FA80
:1038480082F33BB1C3F1200499409A4020FA04F472
:1038580098402143160C1FFA82FE030C85B2B1FB77
:10386800F6FC06FB1C14240404EB10400CFB0EF4BD
:10387800844206D9201A90428CBF02200120ACEB6A
:10388800000C03EB01410CFB12114FEA0C4CB1FB8D
:10389800F6F006FB101100FB0EFE05EB01418E450C
:1038A80006D9AEEB010E96458CBF02220122801A82
:1038B80040EA0C0070BD79219620FFF7DBFE00BFBF
:1038C8008A422DE9F8434CD9B2FA82F4002C3DD152
:1038D800964681464FEA1E481FFA8EF64FEA19446B
:1038E8001FFA89F7B1FBF8FC08FB1C152D0405EB42
:1038F80019450CFB06F9A94509D9A9EB0509CE45D7
:1039080034BF4FF002094FF00109ACEB090C04EB8E
:1039180001410CFB1E114FEA0C4CB1FBF8F408FBFB
:10392800141104FB06F607EB01418E4205D9761AFD
:10393800B64534BF02260126A41B4CEA04041C60C9
:1039480004FB1202089B1A60BDE8F883C4F1200545
:10395800A14000FA04F902FA04FE20FA05F5294309
:10396800B8E779219620FFF785FE00BF2DE9F041E1
:1039780084075FFA81FE5FD0002A59D0034601E030
:10398800002A55D003F801EB990702F1FF32F7D16D
:103998004EEA0E24032A44EA04443ED9151FC3F311
:1039A8008001AE08172D06F1010647D9984600296F
:1039B80040D048F8044B771A03EB810C79080CEBDC
:1039C800C101CCE900440CF1080C6145F9D127F09C
:1039D800010C08EB8C016745CCEB8C7805EB88056E
:1039E80017D02F1F0C60032F13D9A5F108074C60BF
:1039F800032F0ED9A5F10C078C60032F09D9A5F167
:103A08001007CC60032F04D9143D0C61032D88BF27
:103A18004C6102F0030203EB86034AB1013A83F8D2
:103A280000E005D0012A83F801E018BF83F802E01E
:103A3800BDE8F0811546BEE70346A9E719461546D5
:103A4800CFE700BF014B1B681B6818470000002127
:103A5800014B1B685B68184700000021014B1B687D
:103A68009B68184700000021014B1B681B69184719
:103A78000000002138B5174C0320FEF715FA032182
:103A88002568854228BF05462846FEF75BFA30B10F
:103A9800012819D04FF4A7716B20FFF7EBFD2368BD
:103AA800E068AB4206D1FEF73FF9E26823681344A9
:103AB800E36038BD054460890123281AE560237452
:103AC800BDE83840FEF730B963892074E068C01A51
:103AD800F6E700BF500A002108B50C4B1A7802F02F
:103AE800FF0312B15A1E1A4203D0E0216B20FFF7E0
:103AF800C1FD19B1034207D1E521F7E723EA000325
:103B08009B0601D1E921F1E708BD00BF04000021AF
:103B180008B501220C4B02211A764FF4403293F873
:103B280030001A621A68DA615A689A62074A117094
:103B380003F11801FDF7E4FC20B94FF483716B2001
:103B4800FFF798FD08BD00BF500A002104000021BE
:103B580070B5EFF3108572B6264C002394F83160E7
:103B680084F83130012E06D0022E1DD0002E3BD114
:103B780085F3108870BD85F3108894F8323003F00F
:103B8800FF0123B140F25B116B20FFF773FD142096
:103B9800FFF7A2FF184B84F832601B78012BE9D19C
:103BA800BDE87040FFF7B4BF94F8322012B94FF463
:103BB800B671E9E7104984F832300B78023BDBB282
:103BC8001E2B0ED8012202FA03F30C4A1342CFD15E
:103BD80044F20402134204D020230B70FDF798FA34
:103BE800C6E74FF4C471CFE785F310884FF4D77157
:103BF800CAE700BF500A002104000021410000402C
:103C080070B5144C94F8335025B140F28D216B20D7
:103C1800FFF730FD104B01264FF4C85284F832509C
:103C28001E700E4B0E48C4E900230E4BA360FFF72D
:103C38009FFD294684F834000B48FDF737FC2028FF
:103C480084F8300002D14FF42771E0E784F833603C
:103C580070BD00BF500A002104000021FF3F420F41
:103C6800593B00010500B700D13D000108B5104BD4
:103C780093F8332022B94FF43F716B20FFF7FAFC19
:103C8800EFF3108172B693F8312022B1012A0DD0DA
:103C98004FF44371F1E7022283F8312001B962B68B
:103CA80093F83400BDE80840FFF77EBD0022F3E733
:103CB800500A00210B4B93F8333010B523B940F26A
:103CC8001B316B20FFF7D6FCEFF3108472B6064B5E
:103CD8001A78102A03D108221A70FDF719FA04B9C4
:103CE80062B610BD500A002104000021114B10B526
:103CF8001B78042B1BD1104B1A7C1AB95A891868E7
:103D0800801A10BDFEF74AFD04460120FEF73EFD6D
:103D180001380A4B001B000248BFFF30001220EA9E
:103D2800E07080FB0303C00B40EA4340E9E7002052
:103D3800E7E700BF04000021500A002140420F00BD
:103D480038B5144C94F8333023B940F2D1216B20A4
:103D5800FFF790FCEFF3108572B694F8313023B179
:103D6800022B0DD04FF43971F1E7012384F831307B
:103D780005B962B694F83400BDE83840FFF714BDC1
:103D8800054B00221B7884F83120042BF0D10CF06D
:103D980061FEEDE7500A00210400002108B5094B37
:103DA80019781029CAB207D0202A05D0042A04D1CC
:103DB80010221A700CF05EFE08BD40F2CD116B2087
:103DC800FFF758FC0400002110B50C46FEF7E6FC8E
:103DD800611E06293AD8DFE801F004444428235735
:103DE800500001210220FFF777FE2B4B2B4A93F856
:103DF800321079B1042111701A68DA6000221A743D
:103E080093F83130022B01D00CF024FEBDE81040AD
:103E1800FFF730BE20231370BDE81040FDF778B9D6
:103E280040F215216B20FFF725FC1B4B93F832203D
:103E380062B11A4A1278042A09D11B7C012B03D1DA
:103E4800174BD3F844311BBB06F02EFE10BD154BA3
:103E58004FF48072C3F88020BFF34F8FBFF36F8F8A
:103E6800F4E701210220FFF737FE0B4B93F83230BD
:103E780033B1BDE81040FFF74BBE01212820F2E71F
:103E8800064B01221A70E1E7034B1B7C012BBDD1C5
:103E9800BDE81040FFF782BF500A0021040000214E
:103EA8000010014100E100E0014B01229A777047C0
:103EB800880A002100207047074B1A684AB95A68D7
:103EC8003AB99A682AB9D868003818BF0120404220
:103ED80070474FF0FF307047F00A0021104B1A6806
:103EE80010B5CAB9DA6DBAB95A68AAB91C6E9CB9C4
:103EF80093F83C200AB9002010BD93F864200121F2
:103F080093F8483002F1824202F520421160002BFA
:103F1800F1D001F003F8EEE74FF0FF30ECE700BF17
:103F2800340B002138B5114C2368E3B9D4F890302C
:103F3800CBB96368BBB9D4F88C50A5B994F8703084
:103F480023B101F009F8284601F0F6F894F83C008E
:103F580040B194F889300122002003F1824303F52F
:103F680020431A6038BD4FF0FF30FBE7AC0B00214F
:103F78004FF0FF307047000070B50C46054688B119
:103F8800037823B1012B1CD06FF0150018E01F49EE
:103F98000B6991F83F2091F8241000F055FE78B98C
:103FA8001A4B1D607CB32378012BEDD1174D2046A9
:103FB80095F83E2095F8241000F0B0FD00B96C602B
:103FC80070BD124A92F82410D1B192F83A101048F4
:103FD8008900CEB230442E7946F0004606600D487E
:103FE80092F83660084446F00041B340016092F808
:103FF8003F00094A115002F59F42C2F80435CFE745
:104008004FF0FF30DCE72046DAE700BFF00A002176
:10401800804001418041014180A0004170B50C46BB
:10402800054688B1037823B1012B1FD06FF0150026
:104038001BE01F498B6891F8572091F8241000F075
:1040480031FE90B91A4B1D6064B12378012BEDD174
:10405800174D204695F8562095F8241000F090FD4D
:1040680018B9EC6500F046FF002070BD104A92F8C0
:104078002410D1B192F853100E488900CEB23044C2
:104088002E7946F0004606600B4892F84F600844C7
:1040980046F00041B340016092F85700074A1150BA
:1040A80002F59F42C2F80435CCE74FF0FF30DCE759
:1040B800340B0021804001418041014180A0004132
:1040C80070B50C46054680B1037823B1012B1CD08E
:1040D8006FF0150018E01F498B681C3191F86B20B0
:1040E80000F064FF80B91B4B1D6084B32378012B5B
:1040F800EED1184D204695F8862095F8241000F04A
:1041080071FD08B9C5F8904070BD124A92F82410A4
:10411800D1B192F87D1010488900CEB230442E7982
:1041280046F0004606600D4892F87760084446F06D
:104138000041B340016092F88700094A115002F526
:104148009F42C2F80435CEE74FF0FF30DCE7204647
:10415800DAE700BFAC0B00218040014180410141FA
:1041680080A000414FF0FF307047000010B5204C90
:10417800206888B1037833B1012B1CD040F24F215D
:104188007220FFF777FA94F824301BB194F83F10A7
:1041980000F04AFC00232360636853B11B78012BAD
:1041A80022D194F83E1094F8240000F05DFC00231E
:1041B8006360002010BD94F82420002AEAD094F807
:1041C8003620002193400B4AC2F808350A4B94F870
:1041D8003F20995094F83A30084A9B00D150DBB2FE
:1041E800A2F58072D150D5E740F25E21C8E700BF42
:1041F800F00A002100F0004180A000418041014107
:1042080010B51F4C206880B1037833B1012B1BD047
:1042180040F282217120FFF72DFA94F8572094F884
:10422800241000F099FD00232360E36D53B11B783F
:10423800012B22D194F8561094F8240000F032FC97
:104248000023E365002010BD94F82420002AEAD05A
:1042580094F84F20002193400A4AC2F808350A4BC7
:1042680094F85720995094F85330084A9B00D1503D
:10427800DBB2A2F58072D150D5E740F29121C9E7AF
:10428800340B002100F0004180A000418041014131
:1042980010B5204C206880B1037833B1012B1DD0B4
:1042A8004FF448717620FFF7E5F994F8872094F8E1
:1042B800241000F08FFD00232360D4F890305BB108
:1042C8001B78012B23D194F8861094F8240000F071
:1042D80007FC0023C4F89030002010BD94F8242077
:1042E800002AE8D094F87720002193400A4AC2F8BF
:1042F80008350A4B94F88720995094F87D30084A7D
:104308009B00D150DBB2A2F58072D150D3E740F2C6
:104318002F31C7E7AC0B002100F0004180A000411D
:1043280080410141704700000D4A92F824304BB19A
:10433800C10707D592F83E30012103F1824303F506
:104348002043196092F830304BB1830707D592F8B3
:104358003C30012203F1824303F520431A60704781
:10436800F00A00210D4A92F824304BB1C10707D555
:1043780092F85630012103F1824303F52043196076
:1043880092F830304BB1830707D592F854300122A8
:1043980003F1824303F520431A607047340B002170
:1043A8000D4A92F824304BB1C10707D592F88630F0
:1043B800012103F1824303F52043196092F830305C
:1043C8004BB1830707D592F88430012203F1824369
:1043D80003F520431A607047AC0B00214FF0FF3003
:1043E80070470000194B1A6830B562BB9A6852BB17
:1043F80093F83020CAB193F839201549920093F800
:104408003C50D4B2214440F000440C60114993F868
:104418003540114444F000420A600F494A510122D4
:1044280001F59F41A240C1F8042593F824202AB140
:1044380093F83E1040F00040074A505001220020F7
:1044480083F8402030BD6FF01500FBE7F00A00212B
:10445800804001418041014180A00041194B1A6808
:1044680030B562BB5A6852BB93F83020CAB193F892
:1044780052201549920093F85450D4B2214440F088
:1044880000440C60114993F84E40114444F0004236
:104498000A600F494A51012201F59F41A240C1F823
:1044A800042593F824202AB193F8561040F00040D0
:1044B800074A50500122002083F8582030BD6FF081
:1044C8001500FBE7340B0021804001418041014188
:1044D80080A00041194B1A6830B562BB5A6852BBBC
:1044E80093F83020CAB193F87C201549920093F8CC
:1044F8008450D4B2214440F000440C60114993F830
:104508007640114444F000420A600F494A510122A2
:1045180001F59F41A240C1F8042593F824202AB14F
:1045280093F8861040F00040074A505001220020BE
:1045380083F8882030BD6FF01500FBE7AC0B002135
:10454800804001418041014180A0004190F9003044
:10455800002B14BF6FF0150000207047014601487A
:1045680001F072B8000B00210023037070470000AF
:104578000146014801F062B8000B0021002201F059
:1045880010B8000007B5009313460A4601460348D1
:1045980001F073F803B05DF804FB00BF000B0021C5
:1045A8004FF0FF307047000070B50C46054678B1F3
:1045B800037813B16FF0150070BD0E4E736996F84D
:1045C8003D2096F8301000F03FFB0028F4D1B5608C
:1045D80074B12378012BEDD1064D204695F83C2087
:1045E80095F8301000F09AFA0028E5D1EC60E3E77E
:1045F8002046E1E7F00A002170B50C46054678B17F
:10460800037813B16FF0150070BD0E4EF36896F87D
:10461800552096F8301000F045FB0028F4D175605D
:1046280074B12378012BEDD1064D204695F854201E
:1046380095F8301000F0A4FA0028E5D12C66E3E7DD
:104648002046E1E7340B002170B50C46054678B1E9
:10465800037813B16FF0150070BD0F4EF36806F1C3
:10466800280196F8852000F0A1FC0028F4D1756097
:104678007CB12378012BEDD1074D204695F8842095
:1046880095F8301000F0AEFA0028E5D1C5F88C4056
:10469800E2E72046E0E700BFAC0B00214FF0FF3017
:1046A8007047000010B5124CA06850B10378BBB930
:1046B80094F830301BB194F83D1000F0B5F90023A0
:1046C800A360E36853B11B78012B0ED194F83C101A
:1046D80094F8300000F0C8F90023E360002010BD12
:1046E8004FF41E717220FEF7C5FF40F28721F9E7EB
:1046F800F00A002138B5114C606840B10578ADB9B1
:1047080094F8552094F8301000F026FB6560236E6D
:1047180053B11B78012B0ED194F8541094F8300043
:1047280000F0C0F900232366002038BD40F2AB2119
:104738007120FEF79FFF40F2BA21F9E7340B002100
:1047480038B5124C606840B10578BDB994F8852039
:1047580094F8301000F03EFB6560D4F88C305BB103
:104768001B78012B0FD194F8841094F8300000F0D6
:10477800B7F90023C4F88C30002038BD40F2493125
:104788007620FEF777FF4FF45671F9E7AC0B00215E
:104798004FF0FF3070470000154B93F8402022B3CC
:1047A80093F83020A2B193F83510012200208A40F6
:1047B8001049C1F80825104A93F83C10505093F856
:1047C80039200E4992008850D2B2A1F580718850E4
:1047D80093F824202AB193F83E10074A0A4400218E
:1047E8001160002083F8400070474FF0FF30704799
:1047F800F00A002100F0004180A000418041014101
:10480800154B93F8582022B393F83020A2B193F8AF
:104818004E10012200208A401049C1F80825104A8C
:1048280093F85410505093F852200E499200885033
:10483800D2B2A1F58071885093F824202AB193F858
:104848005610074A0A4400211160002083F85800D6
:1048580070474FF0FF307047340B002100F00041E3
:1048680080A0004180410141154B93F8882022B374
:1048780093F83020A2B193F87610012200208A40E4
:104888001049C1F80825104A93F88410505093F83D
:104898007C200E4992008850D2B2A1F580718850D0
:1048A80093F824202AB193F88610074A0A44002175
:1048B8001160002083F8880070474FF0FF30704780
:1048C800AC0B002100F0004180A000418041014173
:1048D80000230370704700000146014800F0C6BE7F
:1048E800000B0021014B1B681B68184708000021BA
:1048F800014B1B689B68184708000021014B1B6887
:10490800DB68184708000021014B1B681B69184722
:1049180008000021014B1B685B691847080000214B
:10492800014B1B689B69184708000021014B1B6855
:104938005B6A184708000021014B1B681B6B18476E
:1049480008000021014B1B68DB6B18470800002199
:1049580010B4034C24686468A44610BC604700BFC8
:1049680008000021024B1868003818BF0120704762
:10497800E40A002110B4024C2468A44610BC604725
:10498800E40A0021F8B51E4F15465EB20C4697F9A9
:1049980000203146821A002AD4BF3A887A88A5F8BE
:1049A800012095F90130C01A00F3070040B2FBF767
:1049B8001DFC6B78B4F51B6F28700344EB701BD893
:1049C80040F665139C4219D9A4F665140521B4FB79
:1049D800F1F4E4B231462401FBF7EEFB97F900301D
:1049E80095F901209A42074B1C4416BF2418235CF2
:1049F80094F80031AB70F8BD0F24EBE70024E9E729
:104A0800EC0A00214C00002190F9002090F90230B6
:104A180041889A42034B0288C7BF19805A8059803F
:104A28001A807047EC0A002138B50C4B04460D4635
:104A380093F8342001239340094AC2F80835007CD2
:104A480000F0D1FD074B00225A518300616803F53D
:104A5800A0739BB28033CA5038BD00BFF00A002152
:104A680000F0004180A00041A0B10B4B93F840201A
:104A780072B193F83C208A420CD193F83830002167
:104A8800064A9B00D150DBB2A2F58072D150704724
:104A9800034B5A50704700BFF00A00218041014182
:104AA80080A00041A0B10B4B93F8582072B193F845
:104AB80054208A420CD193F851300021064A9B00B9
:104AC800D150DBB2A2F58072D1507047034B5A50D7
:104AD800704700BF340B00218041014180A0004194
:104AE800A0B10B4B93F8882072B193F884208A42C6
:104AF8000CD193F87B300021064A9B00D150DBB2E1
:104B0800A2F58072D1507047034B5A50704700BFCE
:104B1800AC0B00218041014180A00041034610B543
:104B2800F9B1134991F84000A8B191F83C009042BE
:104B38001AD191F838201B7992000E4843F00043AF
:104B4800D4B2035100200C4B134491F8352042F0A5
:104B580000421A6010BD1B79084943F000438B508E
:104B6800F8E74FF0FF30F5E76FF01500F2E700BF08
:104B7800F00A0021804001418041014180A00041AC
:104B8800034610B5F9B1134991F85800A8B191F846
:104B9800540090421AD191F851201B7992000E4886
:104BA80043F00043D4B2035100200C4B134491F856
:104BB8004E2042F000421A6010BD1B79084943F0AC
:104BC80000438B50F8E74FF0FF30F5E76FF0150022
:104BD800F2E700BF340B00218040014180410141D0
:104BE80080A00041034610B5F9B1134991F8880037
:104BF800A8B191F8840090421AD191F87B201B79D2
:104C080092000E4843F00043D4B2035100200C4BED
:104C1800134491F8762042F000421A6010BD1B79C7
:104C2800084943F000438B50F8E74FF0FF30F5E7B1
:104C38006FF01500F2E700BFAC0B00218040014186
:104C48008041014180A00041F8B5044617461D4641
:104C5800F9B1007C00F0C7FC0F4B8100626893F843
:104C68003460C0B201F5A07146F0004300F5A870A9
:104C780089B2803153500949CB51E2686368521BAD
:104C880043F820200123064A0020B340C2F8043527
:104C9800F8BD4FF0FF30FBE7F00A002180A000418B
:104CA80000F000412DE9F041054690461E460C46AD
:104CB800264FE1B1007C002100F002FD97F84D403D
:104CC80083006A6844F00041C0B203F5A07300F5A0
:104CD800A8709BB28033D1501D4B43F808100121B6
:104CE800EA686B6801FA04F4921B43F8202097F8ED
:104CF8003C3033B3287C00F0E3FC97F84C1082007A
:104D08006B6841F0004CC0B202F5A07200F5A870C3
:104D180092B2803243F802C097F865200C4B43F8F2
:104D280002C03B696A681E44EB689E1B01238B40E6
:104D380042F820601C43074B0020C3F80445BDE837
:104D4800F0810029F7D14FF0FF30F8E7340B00214C
:104D580080A0004100F00041F8B5054617461A4EFC
:104D6800B1B196F84D300124184A002104FA03F332
:104D7800C2F80835007C00F0A3FC154B0022DA517C
:104D88008300696803F5A0739BB28033CA5021463B
:104D980096F83C30B3B196F84C20012393400B4A67
:104DA800C2F80835287C00F08BFC96F86520084B83
:104DB800134400221A608300696803F5A0739BB24C
:104DC8008033CA50F8BD00BF340B002100F0004109
:104DD80080A000412DE9F04705461746414C0029BF
:104DE80045D094F87530012694F87820002106FA09
:104DF80003F306FA02F2134394F8792006FA02F252
:104E08001343394AC2F80835007C00F071FC0346A8
:104E180094F8718000229B0094F8721040469146E5
:104E280003F5A07300F003FC69689BB2D4F84CA0AA
:104E38008033CA502D4BCAF890201A50324694F845
:104E48007210404600F0F3FBCAF8989143F80790B7
:104E580094F87E3026499B00DEB241F8069001F5B1
:104E6800807141F803901146204B43F8009094F864
:104E78003C304BB394F8743001261B4A06FA03F30E
:104E8800C2F80835287C00F033FC034694F8721009
:104E980032469B0094F8710000F0C9FB696803F57D
:104EA800A07300229BB28033CA5094F88A100F4B2B
:104EB8005A5094F87F300E499B00DDB24A5101F5F3
:104EC8008071CA50094B1A5094F8703043B100F001
:104ED80065F800F025FC0120BDE8F04700F02CB98A
:104EE800BDE8F087AC0B002100F0004180A0004134
:104EF8008040014108490B681A7F62B193F840204D
:104F08004AB193F83D009A6B0123C979834009B1EE
:104F180093607047D36070479C0B0021044B1B685B
:104F280093F83D109A6B01238B40D360704700BF04
:104F38009C0B0021074B4FF000421B68C3F8242547
:104F48000022C3F85425C3F8C0250722C3F800255A
:104F5800704700BFA40B0021024B00221B68C3F856
:104F680000257047A40B00210B4A60F03F005171E7
:104F78000021107152F8043BC3F85015C3F84015CE
:104F8800C3F844250222C3F84825C3F83415C3F8EA
:104F98003815C3F818117047A40B0021024B0122E1
:104FA8001B685A61704700BFA40B00212DE9F84F18
:104FB8000C46C76806469246FF1A00F0B2FB257AEF
:104FC8003F1A594C002D00F0A88000F0CDF80021C0
:104FD8008046307C00F08CFB94F871B094F8721025
:104FE80005460122584600F022FB94F87530D4F8A3
:104FF8004C9043F000434D4A4D49C9F8983142F866
:105008000A3094F87E2092005FFA82FC41F80C3056
:1050180001F5807194F8793043F000438B50434A8E
:105028001350AB0094F87210002203F5A073584691
:1050380000F0FDFA94F878209BB2716842F00042C3
:10504800EDB2803305F5A875CA50384BC9F89020E1
:105058001A50FFF76FFF00204FEA880101F0FC01AA
:10506800FFF782FF7368012143F8257094F87550A3
:1050780094F8783001FA05F501FA03F31D4394F822
:10508800793001FA03F31D4394F83C30002B46D0E5
:10509800307C00F02DFB034694F87210012294F83E
:1050A800710000F0C4FA94F874C09900D6F804E0CE
:1050B8004CF00048DBB201F5A07102FA0CFC03F5D4
:1050C800A87389B245EA0C0580314EF8018094F83E
:1050D8008AE0164941F80E8094F87F10DFF850E016
:1050E80089005FFA81F94EF809800EF5807E8E44BA
:1050F80094F8791041F00041CEF80010DFF82CE068
:105108004EF80010206971683F1A41F82370094B66
:105118000020C3F80455BDE8F88F2946B4E70029F4
:10512800F5D14FF0FF30F6E7AC0B002180A000412D
:105138008040014100F000410A4A92F8723092F82A
:1051480071209B00824203F1824303F52043D3F888
:10515800102514BF22F4801242F48012C3F81025DF
:10516800704700BFAC0B0021014B587B704700BF54
:10517800400C00212DE9F04786468C460846089EDB
:10518800154674461946002B40F0C1808542B2FA94
:1051980082F245D94AB1C2F1200300FA02FC9540D7
:1051A80094402EFA03F343EA0C0C4FEA154EA8B2CA
:1051B800230CBCFBFEF80EFB18CC08FB00F943EAF5
:1051C8000C43994528D9EB1808F1FF3704D29945C3
:1051D80002D9A8F102072B44A3EB0903A4B2B3FB3D
:1051E800FEFC0EFB1C330CFB00F044EA0344A04217
:1051F80014D92C190CF1FF3304D2A04202D9ACF116
:1052080002032C44241A43EA07401EB1D440002369
:1052180034607360BDE8F0874746DDE76346F1E731
:1052280092BB431B01214FEA154EAFB2200CB3FBD2
:10523800FEFC0EFB1C330CFB07F840EA03439845C1
:1052480061D9EB180CF1FF3004D2984502D9ACF1C2
:1052580002002B44A3EB0803A4B2B3FBFEFC0EFB35
:105268001C330CFB07F744EA0344A7424DD92C1919
:105278000CF1FF3304D2A74202D9ACF102032C444B
:10528800E41B43EA0040C0E7C2F120039540944084
:1052980020FA03F12EFA03F34FEA154E9040AFB20D
:1052A8000343B1FBFEFC0EFB1C10190C0CFB07F8AA
:1052B80041EA0041884522D969180CF1FF3004D22F
:1052C800884502D9ACF102002944A1EB08019BB240
:1052D800B1FBFEFC0EFB1C110CFB07F743EA014374
:1052E8009F420ED9EB180CF1FF3104D29F4202D92C
:1052F800ACF102012B44DB1B41EA004193E7604615
:10530800E3E76146F7E76046A4E76346B8E7834208
:1053180006D916B9002108467CE7C6E900E0F9E796
:10532800B3FA83F78FB9834201D3724508D8BEEB2D
:10533800020460EB030301209C461EB9002169E7C3
:105348003846FAE7C6E9004CF8E7C7F1200CBB403D
:105358000EFA07F522FA0CF42EFA0CF1BA401C43A7
:1053680020FA0CF3B8404FEA144901431FFA84FEAF
:10537800B3FBF9F809FB18300B0C08FB0EFA43EAEB
:1053880000439A4540D9E31808F1FF3004D29A4502
:1053980002D9A8F102002344A3EB0A0389B2B3FBA4
:1053A800F9F809FB183308FB0EFE41EA03418E4564
:1053B8002CD9611808F1FF3304D28E4502D9A8F11F
:1053C8000203214443EA0040A1EB0E01A0FB02982E
:1053D8004145CE46434602D306D14D4504D2013855
:1053E800B9EB020E68EB0403002EA7D0B5EB0E0252
:1053F80061EB030101FA0CFC22FA07F3F9404CEACD
:105408000303C6E9003199E74046C5E74346D9E7B3
:10541800704770B50024FAF7F7FE05462646E0B255
:10542800854200D870BDFAF7F5FE0134868480F80D
:105438002660F4E713B50C460DF1030201A9FCF749
:10544800F1FE9DF8033001980BB104B1013002B0B0
:1054580010BDFEF7C5B9704720BF704700280CBFC4
:105468006FF0150000207047002070470723037075
:1054780000207047002070470020704710B5044690
:10548800FEF734FCA04294BF0020012010BD73B584
:10549800A0F10B040E461546E1B20F2903D94F219E
:1054A8006420FEF7E7F80DF1030332460420FAF70B
:1054B80069FE034608B15821F2E704EB840401A908
:1054C8009DF9030004F66514A2B2FFF741FA9DF8AE
:1054D80004302B70BDF80530A5F8013002B070BD5E
:1054E800704708B5FEF742FEFFF7DCF8BDE8084054
:1054F800FFF752B908B5FEF783FEFFF7FBF8BDE8E2
:105508000840FFF77DB908B5FEF7C2FEFFF718F9A6
:10551800FFF7AAF9FFF742FD00F002F90120BDE804
:105528000840FFF709BE0020704740F2AE21722004
:1055380008B5FEF79FF840F2E121712008B5FEF7A3
:1055480099F840F27F31762008B5FEF793F80020ED
:10555800704740F2D321722008B5FEF78BF840F26D
:105568000631712008B5FEF785F84FF46971762089
:1055780008B5FEF77FF80020704740F2DB21722063
:1055880008B5FEF777F840F20E31712008B5FEF73E
:1055980071F84FF46B71762008B5FEF76BF8FFF7DA
:1055A80037BF801A00F3070038B50D46144659B2C4
:1055B80040B2FAF71BFE0023287020446C7040B2FA
:1055C800AB7038BD13B50C46114601AAFFF7D2F9E6
:1055D8009DF804309DF907002370BDF80530A4F844
:1055E800013002B010BD08B50346002043FA00F2AE
:1055F800D20707D401300428F8D14FF48271722001
:10560800FEF738F820B1012802D0022818BF03207D
:1056180008BD8900824214BF60313031C8B270477A
:105628008900824214BF60313031C8B270478900A6
:10563800824214BF60313031C8B27047037D0BB16C
:1056480090F908300B70704707B50A460DF107014D
:10565800FFF7F4FF9DF9073092F900209A4214BF32
:105668006FF01500002003B05DF804FB90F82030BF
:105678000BB190F909300B7070472DE9F3410646DC
:105688000C4615461F469DF82080FFF76BF940B180
:1056980043463A462946204602B0BDE8F041FFF7A6
:1056A80091BF0DF107013046FFF7C8FF43469DF94A
:1056B800072029462046FFF774FF02B0BDE8F081B5
:1056C80008B50346002043FA00F2D20701D541B1DC
:1056D800002101300428F6D14FF485717120FDF7BF
:1056E800C9FF20B1012802D0022818BF032008BD35
:1056F80008B50346002043FA00F2D20701D541B1AC
:10570800002101300428F6D140F241117620FDF73E
:10571800B1FF20B1012802D0022818BF032008BD1C
:105728007047032070470000014B1B68184700BFF3
:105738004C02002107B50B460021024600910348A0
:1057480000F014F903B05DF804FB00BF3157000105
:105758002DE9F047058B04462807904611D4022905
:1057680005F0070540F0CD8020460BF0D9FE78B152
:105778000138218B042811D8DFE800F0C3106D85AB
:10578800950001290CBF45F0100545F0200525833B
:1057980088F31188BFF36F8FBDE8F08701F0070A1F
:1057A800AA4500F0A6800027B9463E46A368002B0C
:1057B80000F0BD8041F00801218388F31188BFF310
:1057C8006F8FA168002900F0BB800D68002900F0E8
:1057D800B780334652462046D1F80480C047002D92
:1057E80076D02B6829461D46F0E701F007035A1FBB
:1057F800012A1BD8002221F00701062B276889B24D
:10580800C4E9002209D13B4603E0628B013262837E
:105818001B68002BF9D141F00201204621830BF0CF
:105828007FFE00287BD041F0200177E0042B0AD1CD
:1058380021F0070189B2204621830BF071FE10B1D7
:1058480041F020012183218B01F0070AAA4550D09D
:105858000027B946AAE7236921F0070141F00601AC
:10586800062DD3F8009021832DD1B9F1000F40D037
:1058780041F00801218388F31188BFF36F8F204618
:105888003949C84729E021F00701236941F004019B
:1058980089B2042DD3F804902183E6D000274FF075
:1058A800040A3E4682E721F00701236941F0050119
:1058B80089B2052DD3F808902183D6D000274FF060
:1058C800050A3E4672E700274FF0060A3E466DE796
:1058D8002B4687E7B9F1000FD1D14FF04003EFF322
:1058E800118883F31288BFF36F8F238B23F008038B
:1058F8002383258BEA062ED525F01003238305F094
:1059080007056669218B002EBFF66FAF0023276855
:10591800C4E9003321F0070141F001012183218B03
:105928004FF0000901F0070AAA457FF43FAF002FA6
:105938009BD041F00801218388F31188BFF36F8F52
:10594800002FC7D03D6839463346524620460BF0F3
:1059580013FE2F46F4E7AB067FF51AAF25F02003B8
:10596800238305F00705FFE6AD1501012DE9F04F8A
:1059780081468B4617461C46002595B0387808B9ED
:10598800284657E37B1C2528039306D05946C84769
:105998000028C0F24F830135FBE1182200210EA830
:1059A8000CF0CEF97B78252B7DD0002398469E46B7
:1059B8009C461E46781C014610F8012B2B2A00F045
:1059C800A18000F29880202A00F09F80232A00F00E
:1059D8009F802BB19DF8403043F040038DF8403054
:1059E800B8F1000F05D09DF8403043F020038DF842
:1059F8004030BEF1000F05D09DF8403043F0100351
:105A08008DF84030BCF1000F05D09DF8403043F0D0
:105A180008038DF840302EB19DF8403043F0040360
:105A28008DF840309DF8403003F04400442803D1FD
:105A38006FF386138DF840309DF840302A2A43F0E2
:105A480080038DF840307FD19DF841204B1C42F0F7
:105A580001028DF841201A782E2A0CBF012100215D
:105A68009DF8412061F341028DF8412078D15A78A0
:105A78002A2A6ED000224FF00A0C0133194611F879
:105A8800010BA0F13006092E40F295809DF84010D8
:105A98001292C1F3400040EAD2700A4660F3410214
:105AA8008DF840205CE0BA1C03928DF843309DF8D5
:105AB8004130DA0740F12E8154F8048BB8F1000F19
:105AC80007DA9DF84020C8F1000842F004028DF87A
